{"abi":[{"type":"constructor","inputs":[{"name":"_usdc","type":"address","internalType":"contract IERC20"},{"name":"_oracle","type":"address","internalType":"address"},{"name":"_reserveVault","type":"address","internalType":"address"},{"name":"_strategyRouter","type":"address","internalType":"address"},{"name":"_assetRegistry","type":"address","internalType":"address"}],"stateMutability":"nonpayable"},{"type":"function","name":"allowance","inputs":[{"name":"owner","type":"address","internalType":"address"},{"name":"spender","type":"address","internalType":"address"}],"outputs":[{"name":"","type":"uint256","internalType":"uint256"}],"stateMutability":"view"},{"type":"function","name":"approve","inputs":[{"name":"spender","type":"address","internalType":"address"},{"name":"value","type":"uint256","internalType":"uint256"}],"outputs":[{"name":"","type":"bool","internalType":"bool"}],"stateMutability":"nonpayable"},{"type":"function","name":"asset","inputs":[],"outputs":[{"name":"","type":"address","internalType":"address"}],"stateMutability":"view"},{"type":"function","name":"assetRegistry","inputs":[],"outputs":[{"name":"","type":"address","internalType":"contract AssetRegistry"}],"stateMutability":"view"},{"type":"function","name":"balanceOf","inputs":[{"name":"account","type":"address","internalType":"address"}],"outputs":[{"name":"","type":"uint256","internalType":"uint256"}],"stateMutability":"view"},{"type":"function","name":"convertToAssets","inputs":[{"name":"shares","type":"uint256","internalType":"uint256"}],"outputs":[{"name":"","type":"uint256","internalType":"uint256"}],"stateMutability":"view"},{"type":"function","name":"convertToShares","inputs":[{"name":"assets","type":"uint256","internalType":"uint256"}],"outputs":[{"name":"","type":"uint256","internalType":"uint256"}],"stateMutability":"view"},{"type":"function","name":"decimals","inputs":[],"outputs":[{"name":"","type":"uint8","internalType":"uint8"}],"stateMutability":"view"},{"type":"function","name":"deposit","inputs":[{"name":"assets","type":"uint256","internalType":"uint256"},{"name":"receiver","type":"address","internalType":"address"}],"outputs":[{"name":"","type":"uint256","internalType":"uint256"}],"stateMutability":"nonpayable"},{"type":"function","name":"depositMulti","inputs":[{"name":"tokens","type":"address[]","internalType":"address[]"},{"name":"amounts","type":"uint256[]","internalType":"uint256[]"},{"name":"receiver","type":"address","internalType":"address"}],"outputs":[{"name":"shares","type":"uint256","internalType":"uint256"}],"stateMutability":"nonpayable"},{"type":"function","name":"maxDeposit","inputs":[{"name":"","type":"address","internalType":"address"}],"outputs":[{"name":"","type":"uint256","internalType":"uint256"}],"stateMutability":"view"},{"type":"function","name":"maxMint","inputs":[{"name":"","type":"address","internalType":"address"}],"outputs":[{"name":"","type":"uint256","internalType":"uint256"}],"stateMutability":"view"},{"type":"function","name":"maxRedeem","inputs":[{"name":"owner","type":"address","internalType":"address"}],"outputs":[{"name":"","type":"uint256","internalType":"uint256"}],"stateMutability":"view"},{"type":"function","name":"maxWithdraw","inputs":[{"name":"owner","type":"address","internalType":"address"}],"outputs":[{"name":"","type":"uint256","internalType":"uint256"}],"stateMutability":"view"},{"type":"function","name":"mint","inputs":[{"name":"shares","type":"uint256","internalType":"uint256"},{"name":"receiver","type":"address","internalType":"address"}],"outputs":[{"name":"","type":"uint256","internalType":"uint256"}],"stateMutability":"nonpayable"},{"type":"function","name":"name","inputs":[],"outputs":[{"name":"","type":"string","internalType":"string"}],"stateMutability":"view"},{"type":"function","name":"oracle","inputs":[],"outputs":[{"name":"","type":"address","internalType":"contract PriceOracle"}],"stateMutability":"view"},{"type":"function","name":"previewDeposit","inputs":[{"name":"assets","type":"uint256","internalType":"uint256"}],"outputs":[{"name":"","type":"uint256","internalType":"uint256"}],"stateMutability":"view"},{"type":"function","name":"previewMint","inputs":[{"name":"shares","type":"uint256","internalType":"uint256"}],"outputs":[{"name":"","type":"uint256","internalType":"uint256"}],"stateMutability":"view"},{"type":"function","name":"previewRedeem","inputs":[{"name":"shares","type":"uint256","internalType":"uint256"}],"outputs":[{"name":"","type":"uint256","internalType":"uint256"}],"stateMutability":"view"},{"type":"function","name":"previewWithdraw","inputs":[{"name":"assets","type":"uint256","internalType":"uint256"}],"outputs":[{"name":"","type":"uint256","internalType":"uint256"}],"stateMutability":"view"},{"type":"function","name":"redeem","inputs":[{"name":"shares","type":"uint256","internalType":"uint256"},{"name":"receiver","type":"address","internalType":"address"},{"name":"owner","type":"address","internalType":"address"}],"outputs":[{"name":"","type":"uint256","internalType":"uint256"}],"stateMutability":"nonpayable"},{"type":"function","name":"redeemMulti","inputs":[{"name":"tokens","type":"address[]","internalType":"address[]"},{"name":"shareAmounts","type":"uint256[]","internalType":"uint256[]"},{"name":"receiver","type":"address","internalType":"address"}],"outputs":[{"name":"amountsOut","type":"uint256[]","internalType":"uint256[]"}],"stateMutability":"nonpayable"},{"type":"function","name":"reserveVault","inputs":[],"outputs":[{"name":"","type":"address","internalType":"contract ReserveVault"}],"stateMutability":"view"},{"type":"function","name":"strategyRouter","inputs":[],"outputs":[{"name":"","type":"address","internalType":"contract StrategyRouter"}],"stateMutability":"view"},{"type":"function","name":"symbol","inputs":[],"outputs":[{"name":"","type":"string","internalType":"string"}],"stateMutability":"view"},{"type":"function","name":"totalAssets","inputs":[],"outputs":[{"name":"","type":"uint256","internalType":"uint256"}],"stateMutability":"view"},{"type":"function","name":"totalSupply","inputs":[],"outputs":[{"name":"","type":"uint256","internalType":"uint256"}],"stateMutability":"view"},{"type":"function","name":"transfer","inputs":[{"name":"to","type":"address","internalType":"address"},{"name":"value","type":"uint256","internalType":"uint256"}],"outputs":[{"name":"","type":"bool","internalType":"bool"}],"stateMutability":"nonpayable"},{"type":"function","name":"transferFrom","inputs":[{"name":"from","type":"address","internalType":"address"},{"name":"to","type":"address","internalType":"address"},{"name":"value","type":"uint256","internalType":"uint256"}],"outputs":[{"name":"","type":"bool","internalType":"bool"}],"stateMutability":"nonpayable"},{"type":"function","name":"withdraw","inputs":[{"name":"assets","type":"uint256","internalType":"uint256"},{"name":"receiver","type":"address","internalType":"address"},{"name":"owner","type":"address","internalType":"address"}],"outputs":[{"name":"","type":"uint256","internalType":"uint256"}],"stateMutability":"nonpayable"},{"type":"event","name":"Approval","inputs":[{"name":"owner","type":"address","indexed":true,"internalType":"address"},{"name":"spender","type":"address","indexed":true,"internalType":"address"},{"name":"value","type":"uint256","indexed":false,"internalType":"uint256"}],"anonymous":false},{"type":"event","name":"Deposit","inputs":[{"name":"sender","type":"address","indexed":true,"internalType":"address"},{"name":"owner","type":"address","indexed":true,"internalType":"address"},{"name":"assets","type":"uint256","indexed":false,"internalType":"uint256"},{"name":"shares","type":"uint256","indexed":false,"internalType":"uint256"}],"anonymous":false},{"type":"event","name":"MultiDeposit","inputs":[{"name":"caller","type":"address","indexed":true,"internalType":"address"},{"name":"receiver","type":"address","indexed":true,"internalType":"address"},{"name":"tokens","type":"address[]","indexed":false,"internalType":"address[]"},{"name":"amounts","type":"uint256[]","indexed":false,"internalType":"uint256[]"},{"name":"shares","type":"uint256","indexed":false,"internalType":"uint256"}],"anonymous":false},{"type":"event","name":"MultiWithdraw","inputs":[{"name":"caller","type":"address","indexed":true,"internalType":"address"},{"name":"receiver","type":"address","indexed":true,"internalType":"address"},{"name":"tokens","type":"address[]","indexed":false,"internalType":"address[]"},{"name":"shares","type":"uint256[]","indexed":false,"internalType":"uint256[]"},{"name":"amountsOut","type":"uint256[]","indexed":false,"internalType":"uint256[]"}],"anonymous":false},{"type":"event","name":"Transfer","inputs":[{"name":"from","type":"address","indexed":true,"internalType":"address"},{"name":"to","type":"address","indexed":true,"internalType":"address"},{"name":"value","type":"uint256","indexed":false,"internalType":"uint256"}],"anonymous":false},{"type":"event","name":"Withdraw","inputs":[{"name":"sender","type":"address","indexed":true,"internalType":"address"},{"name":"receiver","type":"address","indexed":true,"internalType":"address"},{"name":"owner","type":"address","indexed":true,"internalType":"address"},{"name":"assets","type":"uint256","indexed":false,"internalType":"uint256"},{"name":"shares","type":"uint256","indexed":false,"internalType":"uint256"}],"anonymous":false},{"type":"error","name":"AddressEmptyCode","inputs":[{"name":"target","type":"address","internalType":"address"}]},{"type":"error","name":"AddressInsufficientBalance","inputs":[{"name":"account","type":"address","internalType":"address"}]},{"type":"error","name":"ERC20InsufficientAllowance","inputs":[{"name":"spender","type":"address","internalType":"address"},{"name":"allowance","type":"uint256","internalType":"uint256"},{"name":"needed","type":"uint256","internalType":"uint256"}]},{"type":"error","name":"ERC20InsufficientBalance","inputs":[{"name":"sender","type":"address","internalType":"address"},{"name":"balance","type":"uint256","internalType":"uint256"},{"name":"needed","type":"uint256","internalType":"uint256"}]},{"type":"error","name":"ERC20InvalidApprover","inputs":[{"name":"approver","type":"address","internalType":"address"}]},{"type":"error","name":"ERC20InvalidReceiver","inputs":[{"name":"receiver","type":"address","internalType":"address"}]},{"type":"error","name":"ERC20InvalidSender","inputs":[{"name":"sender","type":"address","internalType":"address"}]},{"type":"error","name":"ERC20InvalidSpender","inputs":[{"name":"spender","type":"address","internalType":"address"}]},{"type":"error","name":"ERC4626ExceededMaxDeposit","inputs":[{"name":"receiver","type":"address","internalType":"address"},{"name":"assets","type":"uint256","internalType":"uint256"},{"name":"max","type":"uint256","internalType":"uint256"}]},{"type":"error","name":"ERC4626ExceededMaxMint","inputs":[{"name":"receiver","type":"address","internalType":"address"},{"name":"shares","type":"uint256","internalType":"uint256"},{"name":"max","type":"uint256","internalType":"uint256"}]},{"type":"error","name":"ERC4626ExceededMaxRedeem","inputs":[{"name":"owner","type":"address","internalType":"address"},{"name":"shares","type":"uint256","internalType":"uint256"},{"name":"max","type":"uint256","internalType":"uint256"}]},{"type":"error","name":"ERC4626ExceededMaxWithdraw","inputs":[{"name":"owner","type":"address","internalType":"address"},{"name":"assets","type":"uint256","internalType":"uint256"},{"name":"max","type":"uint256","internalType":"uint256"}]},{"type":"error","name":"FailedInnerCall","inputs":[]},{"type":"error","name":"MathOverflowedMulDiv","inputs":[]},{"type":"error","name":"ReentrancyGuardReentrantCall","inputs":[]},{"type":"error","name":"SafeERC20FailedOperation","inputs":[{"name":"token","type":"address","internalType":"address"}]}],"bytecode":{"object":"0x60c08060405234620004135760a08162002179803803809162000023828562000433565b83398101031262000413578051906001600160a01b03808316830362000413576020916200005383820162000457565b92620000626040830162000457565b916200007f6080620000776060840162000457565b920162000457565b926040516200008e8162000417565b60118152705969656c6447756172642053686172657360781b8482015260405197620000ba8962000417565b600389526259475360e81b858a015281516001600160401b03959086811162000318576003546001948582811c9216801562000408575b84831014620003f45781601f8493116200039e575b508390601f831160011462000338575f926200032c575b505081851b915f199060031b1c1916176003555b8951958611620003185760049081548481811c911680156200030d575b82821014620002fa57601f8111620002b3575b5088999a5f999798995081601f8a1160011462000244575097809188995f9998999262000238575b50505f19600383901b1c191690841b1790555b620001a7816200046c565b90156200022f575b60a0526080526005558160018060a01b03199716876006541617600655168560075416176007551683600854161760085516906009541617600955604051611c4b90816200052e82396080518181816103fa0152818161089401528181610c1d0152818161123801528181611602015261199d015260a05181610c890152f35b506012620001af565b015190505f8062000189565b9190601f198a16845f52835f20935f905b82821062000298575050918693918b8b9c949b9a9b106200027f575b505050811b0190556200019c565b01515f1960f88460031b161c191690555f808062000271565b8385015186558e9b5094880194938401939081019062000255565b825f52815f20601f890160051c810191838a10620002ef575b601f0160051c01905b818110620002e4575062000161565b5f81558501620002d5565b9091508190620002cc565b602283634e487b7160e01b5f525260245ffd5b90607f16906200014e565b634e487b7160e01b5f52604160045260245ffd5b015190505f806200011d565b90869350601f1983169160035f52855f20925f5b878282106200038757505084116200036e575b505050811b0160035562000131565b01515f1960f88460031b161c191690555f80806200035f565b8385015186558a979095019493840193016200034c565b90915060035f52835f20601f840160051c810191858510620003e9575b84939291601f89920160051c01915b828110620003da57505062000106565b5f8155859450889101620003ca565b9091508190620003bb565b634e487b7160e01b5f52602260045260245ffd5b91607f1691620000f1565b5f80fd5b604081019081106001600160401b038211176200031857604052565b601f909101601f19168101906001600160401b038211908210176200031857604052565b51906001600160a01b03821682036200041357565b5f80604051926020938481019063313ce56760e01b825260048152620004928162000417565b51916001600160a01b03165afa3d1562000524573d906001600160401b038211620003185760405191620004d0601f8201601f191685018462000433565b82523d5f8484013e5b8062000518575b620004ee575b50505f905f90565b81818051810103126200041357015160ff8111156200050e5780620004e6565b9060ff6001921690565b508181511015620004e0565b606090620004d956fe60406080815260049081361015610014575f80fd5b5f3560e01c91826301e1d11414610f1857826306fdde0314610e2457826307a2d13a14610c04578263095ea7b314610dfb5782630a28a47714610ddd57826318160ddd14610dbf57826323b872dd14610ccf578263313ce56714610c7457826331bd38ed14610c4c57826338d52e0f14610c09578263402d267d146102625782634cdad50614610c045782636e553f6514610bd157826370a0823114610bb15782637dc0d1d014610b895782638040c6751461081957826394bf804d146107e657826395d89b41146106e8578263979d7e86146106c0578263a9059cbb14610690578263aa3053b014610399578263b3d7f6b91461037b578263b460af94146102f0578263ba0876521461026757508163c63d75b614610262578163c6e6f59214610174578163ce96cb771461022c578163cef062fc14610205578163d905777e146101c5578163dd62ed3e14610179575063ef8b30f714610174575f80fd5b6110ea565b346101c157806003193601126101c157602090610194610fa1565b61019c610fb7565b9060018060a01b038091165f5260018452825f2091165f528252805f20549051908152f35b5f80fd5b346101c15760203660031901126101c1576020906101fe6101e4610fa1565b6001600160a01b03165f9081526020819052604090205490565b9051908152f35b346101c1575f3660031901126101c15760075490516001600160a01b039091168152602090f35b346101c15760203660031901126101c1576020906001600160a01b03610250610fa1565b165f525f82526101fe815f205461149c565b610fcd565b90346101c157610276366110b5565b9291936102938460018060a01b03165f525f60205260405f205490565b8086116102bb575050836102b5916102ac60209661149c565b94859133611952565b51908152f35b9251632e52afbb60e21b81526001600160a01b0390941690840190815260208101949094525060408301529081906060010390fd5b90346101c1576102ff366110b5565b92919361032461031f8560018060a01b03165f525f60205260405f205490565b61149c565b8086116103465750506102b5908461033d6020966114c7565b94859233611952565b9251633fa733bb60e21b81526001600160a01b0390941690840190815260208101949094525060408301529081906060010390fd5b90346101c15760203660031901126101c1576101fe60209235611471565b346101c1576103a736611023565b916103b59694959196611741565b6103c08785146112cc565b6103c9846113e5565b966103d686519889611130565b8488526103e2856113e5565b60209790601f1901368a8a01376001600160a01b03937f00000000000000000000000000000000000000000000000000000000000000008516905f5b8881106104a8575050507f7ad359bce8e31d330d15fd19e6080a8dcaed3420199f228043ae1455f950f4cf92879695949261046a610477936104a49a519860608a5260608a019161137b565b918783038b8901526113c1565b928484038686015216928061048d33948a611082565b0390a3600160055551928284938452830190611082565b0390f35b6104bb6104b6828b87611318565b61133c565b6104c6828789611318565b35801561068657335f525f8d52808c5f2054106106395761050f6104f0828f9361031f90336118b3565b6105096105046104ff896113fd565b611173565b611184565b90611368565b8960065416908d51928380936341976e0960e01b82528d87168983015260249586915afa91821561062f578f5f936105fd575b50509061055861055d92610509610504876113fd565b611195565b918960085416803b156101c1578d51636ce5768960e11b81526001600160a01b03928316818801908152928d16602084015260408301859052915f91839182908490829060600103925af180156105f3576105e4575b508d518310156105d25750906001918c8e8360051b0101525b0161041e565b634e487b7160e01b5f90815260328552fd5b6105ed90611108565b8e6105b3565b8d513d5f823e3d90fd5b90809350813d8311610628575b6106148183611130565b810103126101c1579051906105588f610542565b503d61060a565b8e513d5f823e3d90fd5b8b5162461bcd60e51b81528085018e9052602160248201527f5661756c743a20696e73756666696369656e742073686172652062616c616e636044820152606560f81b6064820152608490fd5b50506001906105cc565b50346101c157806003193601126101c1576020906106b96106af610fa1565b602435903361151d565b5160018152f35b50346101c1575f3660031901126101c15760095490516001600160a01b039091168152602090f35b90346101c1575f3660031901126101c1578051905f9280549060018260011c91600184169384156107dc575b60209485851081146107c9578488529081156107a7575060011461074e575b6104a48686610744828b0383611130565b5191829182610f34565b5f9081529295507f8a35acfbc15ff81a39ae7d344fd709f28e8600b4aa8c65c6b64bfe7fe36bd19b5b82841061079457505050826104a494610744928201019486610733565b8054868501880152928601928101610777565b60ff191687860152505050151560051b8301019250610744826104a486610733565b602283634e487b7160e01b5f525260245ffd5b92607f1692610714565b90346101c157806003193601126101c15760209135906102b5610807610fb7565b9261081181611471565b8094336115f7565b346101c15761082736611023565b9293949190610834611741565b61083f8186146112cc565b5f925f5b8681106108f9576020888a89897fed839abe6e7443277e4f8b35ee98399fcabc3b4d9a7f04e286c21c8f7f8457de8a6108e08b8b61046a6108c46108bf60018060a01b03966108b96105046104ff8a7f0000000000000000000000000000000000000000000000000000000000000000166113fd565b90611195565b6114f2565b996108cf8b89611856565b89519860608a5260608a019161137b565b92868686015216928033930390a3600160055551908152f35b6109076104b682898b611318565b90610913818587611318565b359160018060a01b038060095416978c518091634f129c5360e01b8252818486169b8c8a830152602094859160249586915afa908115610b7e575f91610b61575b5015610b1457908e92918715610b04576109708830338f611764565b828c8660065416938b875195869384926341976e0960e01b84528301525afa8015610afa5788925f91610ac3575b50916109ce84926109c8610a07956108b96109c26109bb8d6113fd565b9287611368565b91611184565b90611152565b9c6008955f8c8989541692519687958694859363095ea7b360e01b8552840160209093929193604081019460018060a01b031681520152565b03925af18015610ab957610a8b575b5050541692833b156101c1578b516311f9fbc960e21b81526001600160a01b03909216858301908152602081019190915290925f9184919082908490829060400103925af1918215610a8157600192610a72575b505b01610843565b610a7b90611108565b8a610a6a565b8a513d5f823e3d90fd5b81610aaa92903d10610ab2575b610aa28183611130565b810190611350565b508d80610a16565b503d610a98565b8f513d5f823e3d90fd5b94505090508183813d8311610af3575b610add8183611130565b810103126101c15791518e9287916109ce61099e565b503d610ad3565b84513d5f823e3d90fd5b9a50505050505060019150610a6c565b8e5162461bcd60e51b81528089018490526022818401527f5969656c6447756172645661756c743a20756e737570706f7274656420617373604482015261195d60f21b6064820152608490fd5b610b789150843d8611610ab257610aa28183611130565b5f610954565b508f513d5f823e3d90fd5b50346101c1575f3660031901126101c15760065490516001600160a01b039091168152602090f35b50346101c15760203660031901126101c1576020906101fe6101e4610fa1565b90346101c157806003193601126101c15760209135906102b5610bf2610fb7565b610bfb846114f2565b938491336115f7565b610f7b565b50346101c1575f3660031901126101c157517f00000000000000000000000000000000000000000000000000000000000000006001600160a01b03168152602090f35b50346101c1575f3660031901126101c15760085490516001600160a01b039091168152602090f35b90346101c1575f3660031901126101c15760ff7f0000000000000000000000000000000000000000000000000000000000000000169060ff8211610cbc576020925051908152f35b601183634e487b7160e01b5f525260245ffd5b346101c15760603660031901126101c157610ce8610fa1565b610cf0610fb7565b906044359260018060a01b038216805f526001602052855f20335f52602052855f2054915f198303610d2b575b6020876106b988888861151d565b858310610d93578115610d7d573315610d6757505f908152600160209081528682203383528152908690209185900390915582906106b9610d1d565b6024905f885191634a1406b160e11b8352820152fd5b6024905f88519163e602df0560e01b8352820152fd5b8651637dc7a0d960e11b8152339181019182526020820193909352604081018690528291506060010390fd5b50346101c1575f3660031901126101c1576020906002549051908152f35b90346101c15760203660031901126101c1576101fe602092356114c7565b50346101c157806003193601126101c1576020906106b9610e1a610fa1565b6024359033611a93565b90346101c1575f3660031901126101c1578051905f9260035460018160011c91600181168015610f0e575b6020948585108214610efb5750838752908115610edb5750600114610e81575b505050610744826104a4940383611130565b60035f9081529295507fc2575a0e9e593c00f959f8c92f12db2869c3395a3b0502d05e2516446f71f85b5b828410610ec857505050826104a4946107449282010194610e6f565b8054868501880152928601928101610eac565b60ff1916868501525050151560051b8301019250610744826104a4610e6f565b602290634e487b7160e01b5f525260245ffd5b92607f1692610e4f565b50346101c1575f3660031901126101c1576020906101fe6111b3565b602080825282518183018190529093925f5b828110610f6757505060409293505f838284010152601f8019910116010190565b818101860151848201604001528501610f46565b346101c15760203660031901126101c1576020610f9960043561149c565b604051908152f35b600435906001600160a01b03821682036101c157565b602435906001600160a01b03821682036101c157565b346101c15760203660031901126101c157610fe6610fa1565b5060206040515f198152f35b9181601f840112156101c15782359167ffffffffffffffff83116101c1576020808501948460051b0101116101c157565b60606003198201126101c15767ffffffffffffffff916004358381116101c1578261105091600401610ff2565b939093926024359182116101c15761106a91600401610ff2565b90916044356001600160a01b03811681036101c15790565b9081518082526020808093019301915f5b8281106110a1575050505090565b835185529381019392810192600101611093565b60609060031901126101c157600435906001600160a01b039060243582811681036101c1579160443590811681036101c15790565b346101c15760203660031901126101c1576020610f996004356114f2565b67ffffffffffffffff811161111c57604052565b634e487b7160e01b5f52604160045260245ffd5b90601f8019910116810190811067ffffffffffffffff82111761111c57604052565b9190820180921161115f57565b634e487b7160e01b5f52601160045260245ffd5b60ff166012039060ff821161115f57565b60ff16604d811161115f57600a0a90565b811561119f570490565b634e487b7160e01b5f52601260045260245ffd5b6007546006546040516330b0680b60e01b81526001600160a01b03918216600482015260209283908290602490829086165afa908115611294575f9161129f575b506004838360085416604051928380926278744560e21b82525afa938415611294575f94611260575b50506105046104ff61123561125d956108b994611152565b937f0000000000000000000000000000000000000000000000000000000000000000166113fd565b90565b90809450813d831161128d575b6112778183611130565b810103126101c1579151916105046104ff61121d565b503d61126d565b6040513d5f823e3d90fd5b90508281813d83116112c5575b6112b68183611130565b810103126101c157515f6111f4565b503d6112ac565b156112d357565b60405162461bcd60e51b815260206004820152601d60248201527f5661756c743a20617272617973206c656e677468206d69736d617463680000006044820152606490fd5b91908110156113285760051b0190565b634e487b7160e01b5f52603260045260245ffd5b356001600160a01b03811681036101c15790565b908160209103126101c1575180151581036101c15790565b8181029291811591840414171561115f57565b9190808252602080920192915f5b828110611397575050505090565b9091929384359060018060a01b0382168092036101c1579081528201938201929190600101611389565b81835290916001600160fb1b0383116101c15760209260051b809284830137010190565b67ffffffffffffffff811161111c5760051b60200190565b60405163313ce56760e01b815290602090829060049082906001600160a01b03165afa5f9181611433575b5061125d5750601290565b9091506020813d602011611469575b8161144f60209383611130565b810103126101c1575160ff811681036101c157905f611428565b3d9150611442565b6114796111b3565b6001810180911161115f57600254906001820180921161115f5761125d92611a69565b6114a46111b3565b6001810180911161115f57600254906001820180921161115f5761125d92611b20565b6002546001810180911161115f576114dd6111b3565b906001820180921161115f5761125d92611a69565b6002546001810180911161115f576115086111b3565b906001820180921161115f5761125d92611b20565b916001600160a01b038084169283156115df57169283156115c757825f525f60205260405f2054908282106115955750817fddf252ad1be2c89b69c2b068fc378daa952ba7f163c4a11628f55a4df523b3ef92602092855f525f84520360405f2055845f5260405f20818154019055604051908152a3565b60405163391434e360e21b81526001600160a01b03919091166004820152602481019190915260448101829052606490fd5b60405163ec442f0560e01b81525f6004820152602490fd5b604051634b637e8f60e11b81525f6004820152602490fd5b926001600160a01b037f0000000000000000000000000000000000000000000000000000000000000000811692909161163285308887611764565b6008546040805163095ea7b360e01b81529185166001600160a01b031660048301526024820187905294906020816044815f865af1801561173757611718575b508360085416803b156101c15785516311f9fbc960e21b81526001600160a01b03929092166004830152602482018790525f908290604490829084905af1801561170e57918493917fdcbc1c05240f31ff3ad067ef1ee35ce4997762752e3a095284754544f4c709d79695936116ff575b506116ee8183611856565b8451968752602087015216941692a3565b61170890611108565b5f6116e3565b85513d5f823e3d90fd5b6117309060203d602011610ab257610aa28183611130565b505f611672565b86513d5f823e3d90fd5b600260055414611752576002600555565b604051633ee5aeb560e01b8152600490fd5b6040516323b872dd60e01b602082019081526001600160a01b03938416602483015293909216604483015260648083019490945292815291601f19915f918291906117b0608487611130565b60018060a01b031694519082865af1903d15611849573d9167ffffffffffffffff831161111c57611800926117f0602060405194601f8401160184611130565b82523d5f602084013e5b83611bb2565b805190811515918261182e575b50506118165750565b60249060405190635274afe760e01b82526004820152fd5b6118419250602080918301019101611350565b155f8061180d565b50611800906060906117fa565b6001600160a01b03169081156115c7577fddf252ad1be2c89b69c2b068fc378daa952ba7f163c4a11628f55a4df523b3ef6020826118975f94600254611152565b60025584845283825260408420818154019055604051908152a3565b91906001600160a01b0383169081156115df57815f525f60205260405f20549381851061192057506020817fddf252ad1be2c89b69c2b068fc378daa952ba7f163c4a11628f55a4df523b3ef925f95968587528684520360408620558060025403600255604051908152a3565b60405163391434e360e21b81526001600160a01b03919091166004820152602481018590526044810191909152606490fd5b6001600160a01b0383811695818316949092908390888703611a31575b61197992506118b3565b806008541692833b156101c157604051636ce5768960e11b81526001600160a01b037f00000000000000000000000000000000000000000000000000000000000000008416811660048301528216602482015260448101879052935f908590606490829084905af1928315611294577ffbde797d201c681b91056529119e0b02407c7bb96a4a2c75c01fc9667232c8db94604094611a22575b50835196875260208701521693a4565b611a2b90611108565b5f611a12565b9050875f52600160205260405f20865f5260205260405f20549084820391821161115f57611a6485926119799483611a93565b61196f565b9190611a76828285611b20565b92821561119f5709611a855790565b6001810180911161115f5790565b6001600160a01b03908116918215611b085716918215611af05760207f8c5be1e5ebec7d5bd14f71427d1e84f3dd0314c0f7b2291e5b200ac8c7c3b92591835f526001825260405f20855f5282528060405f2055604051908152a3565b604051634a1406b160e11b81525f6004820152602490fd5b60405163e602df0560e01b81525f6004820152602490fd5b9091828202915f1984820993838086109503948086039514611ba55784831115611b9357829109815f038216809204600280826003021880830282030280830282030280830282030280830282030280830282030280920290030293600183805f03040190848311900302920304170290565b60405163227bc15360e01b8152600490fd5b50509061125d9250611195565b90611bd95750805115611bc757805190602001fd5b604051630a12f52160e11b8152600490fd5b81511580611c0c575b611bea575090565b604051639996b31560e01b81526001600160a01b039091166004820152602490fd5b50803b15611be256fea2646970667358221220897a1fe9fc2b0540882045af263eacb4d214ee3317ad0fa4cc65afa485d93fec64736f6c63430008180033","linkReferences":{}},"methodIdentifiers":{"allowance(address,address)":"dd62ed3e","approve(address,uint256)":"095ea7b3","asset()":"38d52e0f","assetRegistry()":"979d7e86","balanceOf(address)":"70a08231","convertToAssets(uint256)":"07a2d13a","convertToShares(uint256)":"c6e6f592","decimals()":"313ce567","deposit(uint256,address)":"6e553f65","depositMulti(address[],uint256[],address)":"8040c675","maxDeposit(address)":"402d267d","maxMint(address)":"c63d75b6","maxRedeem(address)":"d905777e","maxWithdraw(address)":"ce96cb77","mint(uint256,address)":"94bf804d","name()":"06fdde03","oracle()":"7dc0d1d0","previewDeposit(uint256)":"ef8b30f7","previewMint(uint256)":"b3d7f6b9","previewRedeem(uint256)":"4cdad506","previewWithdraw(uint256)":"0a28a477","redeem(uint256,address,address)":"ba087652","redeemMulti(address[],uint256[],address)":"aa3053b0","reserveVault()":"cef062fc","strategyRouter()":"31bd38ed","symbol()":"95d89b41","totalAssets()":"01e1d114","totalSupply()":"18160ddd","transfer(address,uint256)":"a9059cbb","transferFrom(address,address,uint256)":"23b872dd","withdraw(uint256,address,address)":"b460af94"},"id":32}