{"abi":[{"type":"constructor","inputs":[{"name":"_riskEngine","type":"address","internalType":"address"}],"stateMutability":"nonpayable"},{"type":"function","name":"activateStormMode","inputs":[],"outputs":[],"stateMutability":"nonpayable"},{"type":"function","name":"checkConditions","inputs":[],"outputs":[{"name":"","type":"bool","internalType":"bool"}],"stateMutability":"nonpayable"},{"type":"function","name":"disableStormMode","inputs":[],"outputs":[],"stateMutability":"nonpayable"},{"type":"function","name":"healthFactorThreshold","inputs":[],"outputs":[{"name":"","type":"uint256","internalType":"uint256"}],"stateMutability":"view"},{"type":"function","name":"increaseReserve","inputs":[],"outputs":[],"stateMutability":"nonpayable"},{"type":"function","name":"isStormMode","inputs":[],"outputs":[{"name":"","type":"bool","internalType":"bool"}],"stateMutability":"view"},{"type":"function","name":"manualOverride","inputs":[],"outputs":[{"name":"","type":"bool","internalType":"bool"}],"stateMutability":"view"},{"type":"function","name":"owner","inputs":[],"outputs":[{"name":"","type":"address","internalType":"address"}],"stateMutability":"view"},{"type":"function","name":"pauseAggressiveStrategies","inputs":[],"outputs":[],"stateMutability":"nonpayable"},{"type":"function","name":"reduceDebt","inputs":[],"outputs":[],"stateMutability":"nonpayable"},{"type":"function","name":"renounceOwnership","inputs":[],"outputs":[],"stateMutability":"nonpayable"},{"type":"function","name":"reserveVault","inputs":[],"outputs":[{"name":"","type":"address","internalType":"contract ReserveVault"}],"stateMutability":"view"},{"type":"function","name":"riskEngine","inputs":[],"outputs":[{"name":"","type":"address","internalType":"contract RiskEngine"}],"stateMutability":"view"},{"type":"function","name":"setManualOverride","inputs":[{"name":"_override","type":"bool","internalType":"bool"}],"outputs":[],"stateMutability":"nonpayable"},{"type":"function","name":"setReserveVault","inputs":[{"name":"_reserveVault","type":"address","internalType":"address"}],"outputs":[],"stateMutability":"nonpayable"},{"type":"function","name":"setSimulatedHealthFactor","inputs":[{"name":"_healthFactor","type":"uint256","internalType":"uint256"}],"outputs":[],"stateMutability":"nonpayable"},{"type":"function","name":"setStrategyRouter","inputs":[{"name":"_strategyRouter","type":"address","internalType":"address"}],"outputs":[],"stateMutability":"nonpayable"},{"type":"function","name":"setThresholds","inputs":[{"name":"_volatilityThreshold","type":"uint256","internalType":"uint256"},{"name":"_healthFactorThreshold","type":"uint256","internalType":"uint256"}],"outputs":[],"stateMutability":"nonpayable"},{"type":"function","name":"simulatedHealthFactor","inputs":[],"outputs":[{"name":"","type":"uint256","internalType":"uint256"}],"stateMutability":"view"},{"type":"function","name":"strategyRouter","inputs":[],"outputs":[{"name":"","type":"address","internalType":"contract IStrategyRouter"}],"stateMutability":"view"},{"type":"function","name":"transferOwnership","inputs":[{"name":"newOwner","type":"address","internalType":"address"}],"outputs":[],"stateMutability":"nonpayable"},{"type":"function","name":"volatilityThreshold","inputs":[],"outputs":[{"name":"","type":"uint256","internalType":"uint256"}],"stateMutability":"view"},{"type":"event","name":"OwnershipTransferred","inputs":[{"name":"previousOwner","type":"address","indexed":true,"internalType":"address"},{"name":"newOwner","type":"address","indexed":true,"internalType":"address"}],"anonymous":false},{"type":"event","name":"ReserveVaultUpdated","inputs":[{"name":"reserveVault","type":"address","indexed":false,"internalType":"address"}],"anonymous":false},{"type":"event","name":"SimulatedHealthFactorUpdated","inputs":[{"name":"healthFactor","type":"uint256","indexed":false,"internalType":"uint256"}],"anonymous":false},{"type":"event","name":"StormModeActivated","inputs":[],"anonymous":false},{"type":"event","name":"StormModeDisabled","inputs":[],"anonymous":false},{"type":"event","name":"StrategyRouterUpdated","inputs":[{"name":"router","type":"address","indexed":false,"internalType":"address"}],"anonymous":false},{"type":"event","name":"ThresholdsUpdated","inputs":[{"name":"volatilityThreshold","type":"uint256","indexed":false,"internalType":"uint256"},{"name":"healthFactorThreshold","type":"uint256","indexed":false,"internalType":"uint256"}],"anonymous":false},{"type":"error","name":"OwnableInvalidOwner","inputs":[{"name":"owner","type":"address","internalType":"address"}]},{"type":"error","name":"OwnableUnauthorizedAccount","inputs":[{"name":"account","type":"address","internalType":"address"}]}],"bytecode":{"object":"0x6080346100e157601f610edc38819003918201601f19168301916001600160401b038311848410176100e5578084926020946040528339810103126100e157516001600160a01b0390818116908190036100e15733156100c9575f5460018060a01b03199033828216175f55604051933391167f8be0079c531659141344cd1fd0a4f28419497f9722a3daafe3b4186f6b6457e05f80a361ffff60a01b196003541660035560326004556105146005556107086006556001541617600155610de290816100fa8239f35b604051631e4fbdf760e01b81525f6004820152602490fd5b5f80fd5b634e487b7160e01b5f52604160045260245ffdfe60406080815260049081361015610014575f80fd5b5f915f3560e01c9182630b5732a414610843578263101405c8146107f1578263259ad55b146107cc5782632c89aa2e146107af57826331bd38ed14610788578263359675011461073c578263445f3235146105595782634bcf45601461053a578263538ee2ed146104cc578263715018a6146104735783836389cdaf3414610395575082638da5cb5b1461036d57826392b888ae146103445782639fe88c8414610326578263a705245e146102b8578263bae6d62b14610291578263cef062fc14610268578263dfd09fa51461023e578263e3064a77146101e6578263e86ba589146101cd578263f2fde38b1461013357505063fc1f3cde14610115575f80fd5b3461013057806003193601126101305761012d610ce7565b80f35b80fd5b909150346101c95760203660031901126101c9576001600160a01b038235818116939192908490036101c557610167610d81565b83156101af5750505f54826bffffffffffffffffffffffff60a01b8216175f55167f8be0079c531659141344cd1fd0a4f28419497f9722a3daafe3b4186f6b6457e05f80a380f35b51631e4fbdf760e01b8152908101849052602490fd5b8480fd5b8280fd5b833461013057806003193601126101305761012d610c82565b909150346101c957806003193601126101c957817fd081f5afbf5e2859f2be3d6c573e1cdd6c8fb93b18ec6145427882fe51507b6a923590816024359161022b610d81565b558060055582519182526020820152a180f35b83903461026457816003193601126102645760209061025b6108be565b90519015158152f35b5080fd5b83903461026457816003193601126102645760035490516001600160a01b039091168152602090f35b83903461026457816003193601126102645760209060ff60035460a81c1690519015158152f35b9150346101c95760203660031901126101c957356001600160a01b03811691908290036101c9577f9287bdd7be0b9b6f6f368e9ed6be829c34a65ebcd05647dcd46d64ab40ae83dc9160209161030c610d81565b600380546001600160a01b0319168317905551908152a180f35b9150346101c957826003193601126101c95760209250549051908152f35b83903461026457816003193601126102645760015490516001600160a01b039091168152602090f35b839034610264578160031936011261026457905490516001600160a01b039091168152602090f35b92503461046f578260031936011261046f576103af610d81565b60035460ff8160a01c16156103c357505050f35b60ff60a01b1916600160a01b176003557f2d06b298166a10f350043d25033d1de7941a824c53f182d1cf95fdf4b54921048380a16103ff610c82565b610407610ce7565b6002546001600160a01b0316918261041e57505050f35b823b1561046a57600160248592838551968794859363062ed57d60e21b85528401525af190811561046157506104515750f35b61045a90610855565b6101305780f35b513d84823e3d90fd5b505050fd5b5050fd5b833461013057806003193601126101305761048c610d81565b5f80546001600160a01b0319811682556001600160a01b03167f8be0079c531659141344cd1fd0a4f28419497f9722a3daafe3b4186f6b6457e08280a380f35b9150346101c95760203660031901126101c957356001600160a01b03811691908290036101c9577fadd0bc0f5a68c451713ad003b5bef3f01c6c3cd8712f8c18d0f6bf15a741a9f591602091610520610d81565b600280546001600160a01b0319168317905551908152a180f35b8390346102645781600319360112610264576020906006549051908152f35b838234610738575f36600319011261073857610573610d81565b60035460ff8160a01c16610585578280f35b60ff60a01b19811660035583517f6e473cef6b3e9420e491de29011d6f5cebcec1ffb77569de1fffd4cafb1585405f80a16001600160a01b03918216806106e3575b505092838284956002541680610631575b50506002541691826105e957508280f35b823b1561046a578360248192828551968794859363062ed57d60e21b85528401525af1908115610461575061061d57808280f35b61062690610855565b610130578082808280f35b6020908451928380926314a3e6cd60e21b82525afa9081156106d95790829186916106aa575b501680610666575b83906105d8565b803b156101c55784808092602486518094819363589ef13360e11b835260198b8401525af1610696575b5061065f565b61069f90610855565b61046a578386610690565b6106cc915060203d6020116106d2575b6106c4818361087d565b81019061089f565b87610657565b503d6106ba565b83513d87823e3d90fd5b803b1561073857816044815f8094633f43a13560e01b8352600a89840152601960248401525af1801561072e5761071b575b806105c7565b610726919350610855565b5f9184610715565b85513d5f823e3d90fd5b5f80fd5b5034610738576020366003190112610738573580151580910361073857610761610d81565b6003805460ff60a81b191660a89290921b60ff60a81b169190911790556107866108be565b005b34610738575f3660031901126107385760025490516001600160a01b039091168152602090f35b34610738575f366003190112610738576020906005549051908152f35b34610738575f3660031901126107385760209060ff60035460a01c1690519015158152f35b9034610738576020366003190112610738577f3d547e9447ae84afd483870bebe045181007adabbf16e0bb20764fc4b3a06890916020913590610832610d81565b8160065551908152a16107866108be565b34610738575f36600319011261073857005b67ffffffffffffffff811161086957604052565b634e487b7160e01b5f52604160045260245ffd5b90601f8019910116810190811067ffffffffffffffff82111761086957604052565b9081602091031261073857516001600160a01b03811681036107385790565b60015460408051632b35f73960e01b8152915f916004916001600160a01b0390602090821681878681845afa968715610be1575f97610c53575b50818591855192838092630cce992360e41b82525afa908115610be1575f91610c26575b50600654966003549160ff98898460a81c16928315610c1b575b508215610c0f575b508115610c04575b508080610bf7575b15610a225750505061095e610d81565b600354858160a01c161561097d575b50505050505b60035460a01c1690565b60ff60a01b1916600160a01b176003557f2d06b298166a10f350043d25033d1de7941a824c53f182d1cf95fdf4b54921048480a16109b9610c82565b6109c1610ce7565b6002541691826109d2575b8061096d565b823b15610a1e57600160248592838551968794859363062ed57d60e21b85528401525af19081156104615750610a0a575b80806109cc565b610a148291610855565b6101305780610a03565b8380fd5b1580610beb575b610a39575b505050505050610973565b610a41610d81565b868160a01c1615610a2e5760ff60a01b19811660035583519083907f6e473cef6b3e9420e491de29011d6f5cebcec1ffb77569de1fffd4cafb1585405f80a11680610b96575b505083826002541680610af5575b505050600254169182610aaa575b8080610a2e565b823b15610a1e578360248192828551968794859363062ed57d60e21b85528401525af19081156104615750610ae1575b8080610aa3565b610aeb8291610855565b6101305780610ada565b82908551928380926314a3e6cd60e21b82525afa918215610b8c57908392918792610b6f575b50501680610b2b575b8381610a95565b803b156101c55784808092602486518094819363589ef13360e11b835260198b8401525af1610b5b575b50610b24565b610b6490610855565b610a1e57835f610b55565b610b859250803d106106d2576106c4818361087d565b5f80610b1b565b84513d88823e3d90fd5b803b1561073857816044815f8094633f43a13560e01b8352600a8b840152601960248401525af18015610be157610bce575b80610a87565b610bd9919550610855565b5f935f610bc8565b84513d5f823e3d90fd5b50868160a01c16610a29565b50878260a01c161561094e565b90508554105f610946565b6005541191505f61093e565b604b1092505f610936565b90508181813d8311610c4c575b610c3d818361087d565b8101031261073857515f61091c565b503d610c33565b9096508181813d8311610c7b575b610c6b818361087d565b81010312610738575195816108f8565b503d610c61565b6003546001600160a01b031680610c97575b50565b803b15610738575f8091604460405180948193633f43a13560e01b835260196004840152601960248401525af18015610cdc57610cd15750565b610cda90610855565b565b6040513d5f823e3d90fd5b6002546001600160a01b0390811680610cfe575050565b6020600491604051928380926314a3e6cd60e21b82525afa908115610cdc575f91610d62575b501680610d2e5750565b803b15610738575f809160246040518094819363589ef13360e11b8352600a60048401525af115610c9457610cda90610855565b610d7b915060203d6020116106d2576106c4818361087d565b5f610d24565b5f546001600160a01b03163303610d9457565b60405163118cdaa760e01b8152336004820152602490fdfea2646970667358221220010bfa49dbfeb82eeb3f8cebe00cffeb7d5a7800acd91aab34931303e6f90d8164736f6c63430008180033","linkReferences":{}},"methodIdentifiers":{"activateStormMode()":"89cdaf34","checkConditions()":"dfd09fa5","disableStormMode()":"445f3235","healthFactorThreshold()":"2c89aa2e","increaseReserve()":"e86ba589","isStormMode()":"259ad55b","manualOverride()":"bae6d62b","owner()":"8da5cb5b","pauseAggressiveStrategies()":"0b5732a4","reduceDebt()":"fc1f3cde","renounceOwnership()":"715018a6","reserveVault()":"cef062fc","riskEngine()":"92b888ae","setManualOverride(bool)":"35967501","setReserveVault(address)":"a705245e","setSimulatedHealthFactor(uint256)":"101405c8","setStrategyRouter(address)":"538ee2ed","setThresholds(uint256,uint256)":"e3064a77","simulatedHealthFactor()":"4bcf4560","strategyRouter()":"31bd38ed","transferOwnership(address)":"f2fde38b","volatilityThreshold()":"9fe88c84"},"id":30}