{"abi":[{"type":"constructor","inputs":[],"stateMutability":"nonpayable"},{"type":"function","name":"getSupportedAssets","inputs":[],"outputs":[{"name":"","type":"address[]","internalType":"address[]"}],"stateMutability":"view"},{"type":"function","name":"isSupported","inputs":[{"name":"token","type":"address","internalType":"address"}],"outputs":[{"name":"","type":"bool","internalType":"bool"}],"stateMutability":"view"},{"type":"function","name":"owner","inputs":[],"outputs":[{"name":"","type":"address","internalType":"address"}],"stateMutability":"view"},{"type":"function","name":"registerAsset","inputs":[{"name":"token","type":"address","internalType":"address"}],"outputs":[],"stateMutability":"nonpayable"},{"type":"function","name":"removeAsset","inputs":[{"name":"token","type":"address","internalType":"address"}],"outputs":[],"stateMutability":"nonpayable"},{"type":"function","name":"renounceOwnership","inputs":[],"outputs":[],"stateMutability":"nonpayable"},{"type":"function","name":"transferOwnership","inputs":[{"name":"newOwner","type":"address","internalType":"address"}],"outputs":[],"stateMutability":"nonpayable"},{"type":"event","name":"AssetRegistered","inputs":[{"name":"token","type":"address","indexed":true,"internalType":"address"}],"anonymous":false},{"type":"event","name":"AssetRemoved","inputs":[{"name":"token","type":"address","indexed":true,"internalType":"address"}],"anonymous":false},{"type":"event","name":"OwnershipTransferred","inputs":[{"name":"previousOwner","type":"address","indexed":true,"internalType":"address"},{"name":"newOwner","type":"address","indexed":true,"internalType":"address"}],"anonymous":false},{"type":"error","name":"OwnableInvalidOwner","inputs":[{"name":"owner","type":"address","internalType":"address"}]},{"type":"error","name":"OwnableUnauthorizedAccount","inputs":[{"name":"account","type":"address","internalType":"address"}]}],"bytecode":{"object":"0x60808060405234610078573315610063575f8054336001600160a01b03198216811783556040519290916001600160a01b0316907f8be0079c531659141344cd1fd0a4f28419497f9722a3daafe3b4186f6b6457e09080a3610614908161007d8239f35b631e4fbdf760e01b81525f6004820152602490fd5b5f80fdfe60406080815260049081361015610014575f80fd5b5f3560e01c80634a5e42b1146103f55780634f129c53146103b5578063715018a61461035e5780638da5cb5b14610337578063d312998f146101e8578063e5406dbf146100fb5763f2fde38b14610069575f80fd5b346100f75760203660031901126100f7576001600160a01b038235818116939192908490036100f75761009a6105b3565b83156100e15750505f54826bffffffffffffffffffffffff60a01b8216175f55167f8be0079c531659141344cd1fd0a4f28419497f9722a3daafe3b4186f6b6457e05f80a3005b905f6024925191631e4fbdf760e01b8352820152fd5b5f80fd5b50346100f7575f3660031901126100f757805180600254928382526020809201809460025f527f405787fa12a823e0f2b7631cc41b3ba8828b3321ca811111fa75cd3aa3bb5ace905f5b858282106101cb5750505050839003601f01601f191683019467ffffffffffffffff8611848710176101b857508481528185529151818501819052849392840192915f5b82811061019857505050500390f35b83516001600160a01b031685528695509381019392810192600101610189565b604190634e487b7160e01b5f525260245ffd5b83546001600160a01b031685529093019260019283019201610145565b50346100f757602091826003193601126100f75780356001600160a01b038116939092908484036100f75761021b6105b3565b84156102f657845f526001815260ff825f2054166102b557600190855f52525f20600160ff1982541617905560025490680100000000000000008210156101b857509061027182600161028f940160025561056a565b90919060018060a01b038084549260031b9316831b921b1916179055565b7f0700b0f4c19e631ed321192cfc0b71a83caa514675497afc74fe817d5f839dd55f80a2005b905162461bcd60e51b815291820181905260248201527f417373657452656769737472793a20616c726561647920737570706f727465646044820152606490fd5b905162461bcd60e51b815291820152601b60248201527f417373657452656769737472793a207a65726f206164647265737300000000006044820152606490fd5b50346100f7575f3660031901126100f7575f5490516001600160a01b039091168152602090f35b346100f7575f3660031901126100f7576103766105b3565b5f80546001600160a01b0319811682556001600160a01b03167f8be0079c531659141344cd1fd0a4f28419497f9722a3daafe3b4186f6b6457e08280a3005b5090346100f75760203660031901126100f757356001600160a01b03811691908290036100f7576020915f526001825260ff815f20541690519015158152f35b50346100f75760203660031901126100f75781356001600160a01b0381811693918490036100f7576104256105b3565b835f52600192600160205260ff815f2054161561052857845f5260016020525f2060ff198154169055600280545f5b818110610483575b867f37803e2125c48ee96c38ddf04e826daf335b0e1603579040fd275aba6d06b6fc5f80a2005b838761048e8361056a565b929054600393841b1c16146104a557508501610454565b955091935f199290918381019081116105155790610271856104c96104d69461056a565b9054908a1b1c169161056a565b8354908115610502575001926104eb8461056a565b81939154921b1b19169055555f808080808061045c565b603190634e487b7160e01b5f525260245ffd5b601183634e487b7160e01b5f525260245ffd5b5162461bcd60e51b8152602081840152601c60248201527f417373657452656769737472793a206e6f7420737570706f72746564000000006044820152606490fd5b60025481101561059f5760025f527f405787fa12a823e0f2b7631cc41b3ba8828b3321ca811111fa75cd3aa3bb5ace01905f90565b634e487b7160e01b5f52603260045260245ffd5b5f546001600160a01b031633036105c657565b60405163118cdaa760e01b8152336004820152602490fdfea2646970667358221220dc441a4b7c3c3ac553c68165805266c62e1ba4771d2a5e4ee0f7e718e1c17acf64736f6c63430008180033","linkReferences":{}},"methodIdentifiers":{"getSupportedAssets()":"e5406dbf","isSupported(address)":"4f129c53","owner()":"8da5cb5b","registerAsset(address)":"d312998f","removeAsset(address)":"4a5e42b1","renounceOwnership()":"715018a6","transferOwnership(address)":"f2fde38b"},"id":26}