{"abi":[{"type":"constructor","inputs":[{"name":"_strategyRouter","type":"address","internalType":"address"},{"name":"_vault","type":"address","internalType":"address"},{"name":"_oracle","type":"address","internalType":"address"},{"name":"_lendingMarket","type":"address","internalType":"address"},{"name":"_tokens","type":"address[]","internalType":"address[]"}],"stateMutability":"nonpayable"},{"type":"function","name":"deposit","inputs":[{"name":"token","type":"address","internalType":"address"},{"name":"amount","type":"uint256","internalType":"uint256"}],"outputs":[],"stateMutability":"nonpayable"},{"type":"function","name":"emergencyWithdraw","inputs":[],"outputs":[],"stateMutability":"nonpayable"},{"type":"function","name":"harvest","inputs":[],"outputs":[],"stateMutability":"nonpayable"},{"type":"function","name":"isSupported","inputs":[{"name":"","type":"address","internalType":"address"}],"outputs":[{"name":"","type":"bool","internalType":"bool"}],"stateMutability":"view"},{"type":"function","name":"lendingMarket","inputs":[],"outputs":[{"name":"","type":"address","internalType":"contract MockLendingMarket"}],"stateMutability":"view"},{"type":"function","name":"oracle","inputs":[],"outputs":[{"name":"","type":"address","internalType":"contract PriceOracle"}],"stateMutability":"view"},{"type":"function","name":"owner","inputs":[],"outputs":[{"name":"","type":"address","internalType":"address"}],"stateMutability":"view"},{"type":"function","name":"renounceOwnership","inputs":[],"outputs":[],"stateMutability":"nonpayable"},{"type":"function","name":"strategyRouter","inputs":[],"outputs":[{"name":"","type":"address","internalType":"address"}],"stateMutability":"view"},{"type":"function","name":"tokens","inputs":[{"name":"","type":"uint256","internalType":"uint256"}],"outputs":[{"name":"","type":"address","internalType":"address"}],"stateMutability":"view"},{"type":"function","name":"totalAssets","inputs":[],"outputs":[{"name":"","type":"uint256","internalType":"uint256"}],"stateMutability":"view"},{"type":"function","name":"transferOwnership","inputs":[{"name":"newOwner","type":"address","internalType":"address"}],"outputs":[],"stateMutability":"nonpayable"},{"type":"function","name":"vault","inputs":[],"outputs":[{"name":"","type":"address","internalType":"address"}],"stateMutability":"view"},{"type":"function","name":"withdraw","inputs":[{"name":"token","type":"address","internalType":"address"},{"name":"to","type":"address","internalType":"address"},{"name":"amount","type":"uint256","internalType":"uint256"}],"outputs":[],"stateMutability":"nonpayable"},{"type":"event","name":"Deposited","inputs":[{"name":"token","type":"address","indexed":true,"internalType":"address"},{"name":"amount","type":"uint256","indexed":false,"internalType":"uint256"}],"anonymous":false},{"type":"event","name":"EmergencyWithdrawExecuted","inputs":[],"anonymous":false},{"type":"event","name":"Harvested","inputs":[{"name":"yieldUSD","type":"uint256","indexed":false,"internalType":"uint256"}],"anonymous":false},{"type":"event","name":"OwnershipTransferred","inputs":[{"name":"previousOwner","type":"address","indexed":true,"internalType":"address"},{"name":"newOwner","type":"address","indexed":true,"internalType":"address"}],"anonymous":false},{"type":"event","name":"Withdrawn","inputs":[{"name":"token","type":"address","indexed":true,"internalType":"address"},{"name":"to","type":"address","indexed":true,"internalType":"address"},{"name":"amount","type":"uint256","indexed":false,"internalType":"uint256"}],"anonymous":false},{"type":"error","name":"AddressEmptyCode","inputs":[{"name":"target","type":"address","internalType":"address"}]},{"type":"error","name":"AddressInsufficientBalance","inputs":[{"name":"account","type":"address","internalType":"address"}]},{"type":"error","name":"FailedInnerCall","inputs":[]},{"type":"error","name":"OwnableInvalidOwner","inputs":[{"name":"owner","type":"address","internalType":"address"}]},{"type":"error","name":"OwnableUnauthorizedAccount","inputs":[{"name":"account","type":"address","internalType":"address"}]},{"type":"error","name":"SafeERC20FailedOperation","inputs":[{"name":"token","type":"address","internalType":"address"}]}],"bytecode":{"object":"0x6080604090808252346200026757620015da8038038091620000228285620002ef565b8339810160a08282031262000267576200003c8262000313565b9060206200004c81850162000313565b6200005986860162000313565b620000676060870162000313565b608087015190966001600160401b0391908282116200026757019480601f8701121562000267578551918211620002db576005958260051b908a5193620000b188840186620002ef565b84528680850192820101928311620002675786809101915b838310620002c057505050503315620002a9575f979697549260018060a01b039889809481809460018060a01b031998338a8216175f55823391167f8be0079c531659141344cd1fd0a4f28419497f9722a3daafe3b4186f6b6457e05f80a360019d8e9c16898d5416178c5516876002541617600255168560035416176003551692600495848260045416176004555f995b62000170575b88516112889081620003528239f35b82518a1015620002a35783620001878b8562000328565b51169981549a680100000000000000008c10156200029057898c018084558c10156200027d578a9b835f9c9b9c52885f2001908482541617905584620001ce828662000328565b51165f5260068752885f208a60ff19825416179055868660448a5f89620001f6878b62000328565b51169d519d8e94859363095ea7b360e01b8552840152811960248401525af198891562000273578a9962000230575b50880199986200015b565b9098508681813d83116200026b575b6200024b8183620002ef565b8101031262000267575180151503620002675788975f62000225565b5f80fd5b503d6200023f565b8b513d5f823e3d90fd5b603289634e487b7160e01b5f525260245ffd5b604189634e487b7160e01b5f525260245ffd5b62000161565b8751631e4fbdf760e01b81525f6004820152602490fd5b8190620002cd8462000313565b8152019101908690620000c9565b634e487b7160e01b5f52604160045260245ffd5b601f909101601f19168101906001600160401b03821190821017620002db57604052565b51906001600160a01b03821682036200026757565b80518210156200033d5760209160051b010190565b634e487b7160e01b5f52603260045260245ffdfe604060808152600480361015610013575f80fd5b5f3560e01c90816301e1d11414610c4057816331bd38ed14610c185781634641257d146108e557816347e7ef24146107955781634f129c53146107595781634f64b2be1461071957816370a5c274146106f2578163715018a61461069b5781637dc0d1d0146106735781638da5cb5b1461064c578163d9caed1214610398578163db2e21bc1461016f578163f2fde38b146100e2575063fbfa77cf146100b7575f80fd5b346100de575f3660031901126100de5760025490516001600160a01b039091168152602090f35b5f80fd5b9050346100de5760203660031901126100de576100fd610ea9565b906101066110c8565b6001600160a01b039182169283156101595750505f54826bffffffffffffffffffffffff60a01b8216175f55167f8be0079c531659141344cd1fd0a4f28419497f9722a3daafe3b4186f6b6457e05f80a3005b905f6024925191631e4fbdf760e01b8352820152fd5b9050346100de575f3660031901126100de5760018054909283926001600160a01b039283163314801561038b575b801561037f575b6101ad90610fb5565b5f945b6101db575b7f8b6c919fff20551f29abe02af60a5cc2f998a4c6710f7132c9620783cd00e0f65f80a1005b60055485101561037a57826101ef86610ebf565b90549060031b1c16948382541695835163c23f001f60e01b815260209788828061023586308a840190602090939293604083019460018060a01b03809216845216910152565b0381845afa918215610370575f92610341575b50816102e4575b505083516370a0823160e01b815230848201528781602481855afa9081156102da5787985f926102a5575b5050908187939261028f575b505001946101b0565b61029e918760025416906110f3565b5f80610286565b81949398508092503d83116102d3575b6102bf8183610f30565b810103126100de579051869590865f61027a565b503d6102b5565b85513d5f823e3d90fd5b803b156100de57855163f3fef3a360e01b81526001600160a01b0384168682019081526020810193909352915f91839182908490829060400103925af180156102da57610332575b8061024f565b61033b90610f08565b5f61032c565b9091508881813d8311610369575b6103598183610f30565b810103126100de5751905f610248565b503d61034f565b86513d5f823e3d90fd5b6101b5565b505f54831633146101a4565b508260025416331461019d565b9050346100de5760603660031901126100de576103b3610ea9565b6001600160a01b036024358181169490928584036100de5760443583600154163314801561063f575b8015610633575b6103ec90610fb5565b83821695865f526020946006865261040960ff865f205416610ffa565b84516370a0823160e01b8082523084830152949087816024818d5afa908115610629575f916105fc575b508481106104e6575b505050835192835230908301528382602481895afa9182156104dc575f926104ad575b50818111156104a55750905b8161047257005b61049e827fd1c19fbcd4551a5edfb66d43d2e337c04837afda3482b42bdf569a8fccdae5fb95876110f3565b51908152a3005b90509061046b565b9091508381813d83116104d5575b6104c58183610f30565b810103126100de5751905f61045f565b503d6104bb565b83513d5f823e3d90fd5b8403918483116105e9578354875163c23f001f60e01b8152308187019081526001600160a01b0385166020820152929091169390918990839081906040010381875afa9182156105df575f926105b0575b50818111156105a957505b801561043c57823b156100de57865163f3fef3a360e01b81526001600160a01b03909216848301908152602081019190915290915f9183919082908490829060400103925af180156102da5761059a575b808061043c565b6105a390610f08565b5f610593565b9050610542565b9091508881813d83116105d8575b6105c88183610f30565b810103126100de5751905f610537565b503d6105be565b88513d5f823e3d90fd5b601184634e487b7160e01b5f525260245ffd5b90508781813d8311610622575b6106138183610f30565b810103126100de57515f610433565b503d610609565b87513d5f823e3d90fd5b505f54841633146103e3565b50836002541633146103dc565b82346100de575f3660031901126100de575f5490516001600160a01b039091168152602090f35b82346100de575f3660031901126100de5760035490516001600160a01b039091168152602090f35b346100de575f3660031901126100de576106b36110c8565b5f80546001600160a01b0319811682556001600160a01b03167f8be0079c531659141344cd1fd0a4f28419497f9722a3daafe3b4186f6b6457e08280a3005b82346100de575f3660031901126100de57905490516001600160a01b039091168152602090f35b9050346100de5760203660031901126100de5735906005548210156100de57610743602092610ebf565b905491519160018060a01b039160031b1c168152f35b82346100de5760203660031901126100de576020906001600160a01b0361077e610ea9565b165f526006825260ff815f20541690519015158152f35b9050346100de57816003193601126100de576107af610ea9565b916024359160018060a01b03938460015416331480156108d8575b80156108cc575b6107da90610fb5565b84811694855f5260066020526107f560ff855f205416610ffa565b846107fc57005b83516323b872dd60e01b60208201523360248201523060448201526064808201879052815261083690610830608482610f30565b87611136565b82541691823b156100de5783516311f9fbc960e21b81526001600160a01b039092169082019081526020810185905290915f9183919082908490829060400103925af180156108c257917f2da466a7b24304f47e87fa2e1e5a81b9831ce54fec19055ce277ca2f39ba42c493916020936108b3575b5051908152a2005b6108bc90610f08565b5f6108ab565b82513d5f823e3d90fd5b505f54851633146107d1565b50846002541633146107ca565b82346100de575f3660031901126100de576001805481906001600160a01b0390811633148015610c0b575b8015610bff575b6109249095949395610fb5565b5f935f955b61095a575b7f8e55ccfc9778ff8eba1646d765cf1982537ce0f9257054a17b48aad7452501836020868651908152a1005b600554861015610bfa578161096e87610ebf565b90548354875163c23f001f60e01b8152308187019081526001600160a01b03600395861b9490941c90951692831660208681019190915294929392918716918590829081906040010381855afa908115610b85575f91610bcd575b50806109e0575b5050509684019650839050610929565b8851634ffc7e9f60e01b8152308782019081526001600160a01b03861660208201526040810192909252939291908590859081906060010381845afa938415610b85575f94610b9e575b5083156109d057809a99949a3b156100de57885163f3fef3a360e01b81526001600160a01b0384168188019081526020810186905290915f9183919082908490829060400103925af18015610b8557610b8f575b5085855416803b156100de5788516311f9fbc960e21b81526001600160a01b0384168188019081526020810186905290915f9183919082908490829060400103925af18015610b8557602493928c928992610b76575b5054168951938480926341976e0960e01b8252858a8301525afa9182156105df578798999a5f93610b3d575b5050610b3392610b27610b21899694610b1b610b2d95611051565b93610f73565b91610f86565b90610f97565b90610f52565b95948880806109d0565b8198508092949593503d8311610b6f575b610b588183610f30565b810103126100de5794518695929182610b27610b00565b503d610b4e565b610b7f90610f08565b8d610ad4565b89513d5f823e3d90fd5b610b9890610f08565b8a610a7e565b9093508481813d8311610bc6575b610bb68183610f30565b810103126100de5751928b610a2a565b503d610bac565b90508481813d8311610bf3575b610be48183610f30565b810103126100de57518b6109c9565b503d610bda565b61092e565b505f5481163314610917565b5080600254163314610910565b82346100de575f3660031901126100de5760015490516001600160a01b039091168152602090f35b9050346100de575f3660031901126100de5760055481545f926001600160a01b0392918316845b838110610c78576020868851908152f35b84610c8282610ebf565b919054600392831b1c168851906370a0823160e01b825230868301526020918a60249184818481875afa9081156108c2575f91610e76575b50815163c23f001f60e01b815230818b019081526001600160a01b03861660208201529091908690839081906040015b03818c5afa9182156104dc57858b88925f95610e3e575b509451634ffc7e9f60e01b8152309581019586526001600160a01b039091166020860152604085018490529293839081906060015b03818c5afa918215610e34575f92610e03575b50610d5c92610d5791610f52565b610f52565b9384610d70575b5050505050600101610c67565b8984919b95969b54168c51928380926341976e0960e01b8252868c8301525afa928315610df9575f93610dc5575b5050600193610b27610b21610dba9594610b1b610b2d95611051565b95905f808080610d63565b908092949350813d8311610df2575b610dde8183610f30565b810103126100de5751909183610b27610d9e565b503d610dd4565b8b513d5f823e3d90fd5b9091508581813d8311610e2d575b610e1b8183610f30565b810103126100de575190610d5c610d49565b503d610e11565b8e513d5f823e3d90fd5b9450505090925081813d8311610e6f575b610e598183610f30565b810103126100de57518c9185858b610d36610d01565b503d610e4f565b809250858092503d8311610ea2575b610e8f8183610f30565b810103126100de57518b90610cea610cba565b503d610e85565b600435906001600160a01b03821682036100de57565b600554811015610ef45760055f527f036b6384b5eca791c62761152d0c79bb0604c104a5fb6f4eb0703f3154bb3db001905f90565b634e487b7160e01b5f52603260045260245ffd5b67ffffffffffffffff8111610f1c57604052565b634e487b7160e01b5f52604160045260245ffd5b90601f8019910116810190811067ffffffffffffffff821117610f1c57604052565b91908201809211610f5f57565b634e487b7160e01b5f52601160045260245ffd5b81810292918115918404141715610f5f57565b60ff16604d8111610f5f57600a0a90565b8115610fa1570490565b634e487b7160e01b5f52601260045260245ffd5b15610fbc57565b60405162461bcd60e51b815260206004820152601660248201527514dd1c985d1959de4e881d5b985d5d1a1bdc9a5e995960521b6044820152606490fd5b1561100157565b60405162461bcd60e51b815260206004820152602260248201527f4c656e64696e6753747261746567793a20756e737570706f7274656420746f6b60448201526132b760f11b6064820152608490fd5b60405163313ce56760e01b815290602090829060049082906001600160a01b03165afa5f918161108a575b506110875750601290565b90565b9091506020813d6020116110c0575b816110a660209383610f30565b810103126100de575160ff811681036100de57905f61107c565b3d9150611099565b5f546001600160a01b031633036110db57565b60405163118cdaa760e01b8152336004820152602490fd5b60405163a9059cbb60e01b60208201526001600160a01b039290921660248301526044808301939093529181526111349161112f606483610f30565b611136565b565b81516001600160a01b03909116915f91829160200182855af13d156111e3573d67ffffffffffffffff8111610f1c5761119191604051916111816020601f19601f8401160184610f30565b82523d5f602084013e5b836111ef565b80519081151591826111bf575b50506111a75750565b60249060405190635274afe760e01b82526004820152fd5b81925090602091810103126100de57602001518015908115036100de575f8061119e565b6111919060609061118b565b90611216575080511561120457805190602001fd5b604051630a12f52160e11b8152600490fd5b81511580611249575b611227575090565b604051639996b31560e01b81526001600160a01b039091166004820152602490fd5b50803b1561121f56fea264697066735822122001ac29a742732dd6ce65e638b97779baddedbb619284dbb1e083fdda9e2b70b264736f6c63430008180033","linkReferences":{}},"methodIdentifiers":{"deposit(address,uint256)":"47e7ef24","emergencyWithdraw()":"db2e21bc","harvest()":"4641257d","isSupported(address)":"4f129c53","lendingMarket()":"70a5c274","oracle()":"7dc0d1d0","owner()":"8da5cb5b","renounceOwnership()":"715018a6","strategyRouter()":"31bd38ed","tokens(uint256)":"4f64b2be","totalAssets()":"01e1d114","transferOwnership(address)":"f2fde38b","vault()":"fbfa77cf","withdraw(address,address,uint256)":"d9caed12"},"id":43}