{"abi":[{"type":"constructor","inputs":[],"stateMutability":"nonpayable"},{"type":"function","name":"calculateConcentration","inputs":[{"name":"largestAssetValue","type":"uint256","internalType":"uint256"},{"name":"totalPortfolioValue","type":"uint256","internalType":"uint256"}],"outputs":[{"name":"","type":"uint256","internalType":"uint256"}],"stateMutability":"pure"},{"type":"function","name":"calculateHealthFactor","inputs":[{"name":"collateralUSD","type":"uint256","internalType":"uint256"},{"name":"debtUSD","type":"uint256","internalType":"uint256"}],"outputs":[{"name":"","type":"uint256","internalType":"uint256"}],"stateMutability":"pure"},{"type":"function","name":"calculateLeverage","inputs":[{"name":"debtUSD","type":"uint256","internalType":"uint256"},{"name":"equityUSD","type":"uint256","internalType":"uint256"}],"outputs":[{"name":"","type":"uint256","internalType":"uint256"}],"stateMutability":"pure"},{"type":"function","name":"calculateRisk","inputs":[{"name":"_volatility","type":"uint256","internalType":"uint256"},{"name":"_concentration","type":"uint256","internalType":"uint256"},{"name":"_leverage","type":"uint256","internalType":"uint256"},{"name":"_healthFactorRisk","type":"uint256","internalType":"uint256"}],"outputs":[{"name":"","type":"uint256","internalType":"uint256"}],"stateMutability":"pure"},{"type":"function","name":"concentration","inputs":[],"outputs":[{"name":"","type":"uint256","internalType":"uint256"}],"stateMutability":"view"},{"type":"function","name":"getRiskScore","inputs":[],"outputs":[{"name":"","type":"uint256","internalType":"uint256"}],"stateMutability":"view"},{"type":"function","name":"healthFactorRisk","inputs":[],"outputs":[{"name":"","type":"uint256","internalType":"uint256"}],"stateMutability":"view"},{"type":"function","name":"leverage","inputs":[],"outputs":[{"name":"","type":"uint256","internalType":"uint256"}],"stateMutability":"view"},{"type":"function","name":"owner","inputs":[],"outputs":[{"name":"","type":"address","internalType":"address"}],"stateMutability":"view"},{"type":"function","name":"renounceOwnership","inputs":[],"outputs":[],"stateMutability":"nonpayable"},{"type":"function","name":"transferOwnership","inputs":[{"name":"newOwner","type":"address","internalType":"address"}],"outputs":[],"stateMutability":"nonpayable"},{"type":"function","name":"updateMetrics","inputs":[{"name":"_volatility","type":"uint256","internalType":"uint256"},{"name":"_concentration","type":"uint256","internalType":"uint256"},{"name":"_leverage","type":"uint256","internalType":"uint256"},{"name":"_healthFactorRisk","type":"uint256","internalType":"uint256"}],"outputs":[],"stateMutability":"nonpayable"},{"type":"function","name":"volatility","inputs":[],"outputs":[{"name":"","type":"uint256","internalType":"uint256"}],"stateMutability":"view"},{"type":"event","name":"OwnershipTransferred","inputs":[{"name":"previousOwner","type":"address","indexed":true,"internalType":"address"},{"name":"newOwner","type":"address","indexed":true,"internalType":"address"}],"anonymous":false},{"type":"event","name":"RiskMetricsUpdated","inputs":[{"name":"volatility","type":"uint256","indexed":false,"internalType":"uint256"},{"name":"concentration","type":"uint256","indexed":false,"internalType":"uint256"},{"name":"leverage","type":"uint256","indexed":false,"internalType":"uint256"},{"name":"healthFactorRisk","type":"uint256","indexed":false,"internalType":"uint256"}],"anonymous":false},{"type":"error","name":"OwnableInvalidOwner","inputs":[{"name":"owner","type":"address","internalType":"address"}]},{"type":"error","name":"OwnableUnauthorizedAccount","inputs":[{"name":"account","type":"address","internalType":"address"}]}],"bytecode":{"object":"0x6080806040523461008c573315610077575f8054336001600160a01b03198216811783556040519290916001600160a01b0316907f8be0079c531659141344cd1fd0a4f28419497f9722a3daafe3b4186f6b6457e09080a36014600155601e600255600a600355600f6004556105f990816100918239f35b631e4fbdf760e01b81525f6004820152602490fd5b5f80fdfe6080604081815260049182361015610015575f80fd5b5f3560e01c90816301d1bebb1461035c5750806301f7288414610341578063219ce0d4146103235780632b35f739146102fa5780632c86d98e146102dc578063672ac905146102be578063715018a6146102675780638da5cb5b14610240578063955b1ff514610225578063cce9923014610207578063e7f8b5ef14610162578063eae25a0a146101405763f2fde38b146100ae575f80fd5b3461013c57602036600319011261013c576001600160a01b0382358181169391929084900361013c576100df610598565b83156101265750505f54826bffffffffffffffffffffffff60a01b8216175f55167f8be0079c531659141344cd1fd0a4f28419497f9722a3daafe3b4186f6b6457e05f80a3005b905f6024925191631e4fbdf760e01b8352820152fd5b5f80fd5b503461013c5760209061015b61015536610376565b90610575565b9051908152f35b503461013c577fba858a0baff303b3c4e2271f744c4a8ec377725d8ddfd0125ccc17a723d9d85b916080916101963661038c565b8094929193956101a4610598565b6064871115806101fc575b806101f1575b806101e6575b6101c490610447565b86600155826002558460035555815194855260208501528301526060820152a1005b5060648211156101bb565b5060648511156101b5565b5060648311156101af565b503461013c575f36600319011261013c576020906001549051908152f35b503461013c5760209061015b61023a36610376565b90610536565b503461013c575f36600319011261013c575f5490516001600160a01b039091168152602090f35b3461013c575f36600319011261013c5761027f610598565b5f80546001600160a01b0319811682556001600160a01b03167f8be0079c531659141344cd1fd0a4f28419497f9722a3daafe3b4186f6b6457e08280a3005b503461013c5760209061015b6102d33661038c565b92919091610499565b503461013c575f36600319011261013c576020906003549051908152f35b503461013c575f36600319011261013c5761015b60209260015490600254600354915492610499565b503461013c575f36600319011261013c576020906002549051908152f35b503461013c5760209061015b61035636610376565b906103c8565b83903461013c575f36600319011261013c57602091548152f35b604090600319011261013c576004359060243590565b608090600319011261013c5760043590602435906044359060643590565b81156103b4570490565b634e487b7160e01b5f52601260045260245ffd5b8115610441576103e8918282029180830484149015171561042d576103ec916103aa565b6107d08082106103fd575050505f90565b82821161040c57505050606490565b8181039181831161042d57606483029283046064149114171561042d570490565b634e487b7160e01b5f52601160045260245ffd5b50505f90565b1561044e57565b60405162461bcd60e51b815260206004820152601660248201527504d657472696373206d757374206265203c3d203130360541b6044820152606490fd5b9190820180921161042d57565b9060648211158061052b575b80610520575b80610515575b6104ba90610447565b8160230291602383040361042d578060190290601982040361042d576104df9161048c565b908060190290601982040361042d576104f79161048c565b81600f0291600f83040361042d576064916105119161048c565b0490565b5060648411156104b1565b5060648311156104ab565b5060648111156104a5565b90610541908261048c565b80156104415760648202918083046064149015171561042d57610563916103aa565b60648111156105725750606490565b90565b9080156104415760648202918083046064149015171561042d57610563916103aa565b5f546001600160a01b031633036105ab57565b60405163118cdaa760e01b8152336004820152602490fdfea2646970667358221220b7fae77d8393f4e46f6e882792526d99ea2b890a7238ae6ff9eab27f675c29bc64736f6c63430008180033","linkReferences":{}},"methodIdentifiers":{"calculateConcentration(uint256,uint256)":"eae25a0a","calculateHealthFactor(uint256,uint256)":"01f72884","calculateLeverage(uint256,uint256)":"955b1ff5","calculateRisk(uint256,uint256,uint256,uint256)":"672ac905","concentration()":"219ce0d4","getRiskScore()":"2b35f739","healthFactorRisk()":"01d1bebb","leverage()":"2c86d98e","owner()":"8da5cb5b","renounceOwnership()":"715018a6","transferOwnership(address)":"f2fde38b","updateMetrics(uint256,uint256,uint256,uint256)":"e7f8b5ef","volatility()":"cce99230"},"id":29}