{"abi":[{"type":"constructor","inputs":[],"stateMutability":"nonpayable"},{"type":"function","name":"getAllocation","inputs":[{"name":"riskScore","type":"uint256","internalType":"uint256"},{"name":"isStormMode","type":"bool","internalType":"bool"}],"outputs":[{"name":"lendingPercent","type":"uint256","internalType":"uint256"},{"name":"stablePercent","type":"uint256","internalType":"uint256"},{"name":"reservePercent","type":"uint256","internalType":"uint256"}],"stateMutability":"view"},{"type":"function","name":"highRiskAlloc","inputs":[],"outputs":[{"name":"lendingPercent","type":"uint256","internalType":"uint256"},{"name":"stablePercent","type":"uint256","internalType":"uint256"},{"name":"reservePercent","type":"uint256","internalType":"uint256"}],"stateMutability":"view"},{"type":"function","name":"lowRiskAlloc","inputs":[],"outputs":[{"name":"lendingPercent","type":"uint256","internalType":"uint256"},{"name":"stablePercent","type":"uint256","internalType":"uint256"},{"name":"reservePercent","type":"uint256","internalType":"uint256"}],"stateMutability":"view"},{"type":"function","name":"medRiskAlloc","inputs":[],"outputs":[{"name":"lendingPercent","type":"uint256","internalType":"uint256"},{"name":"stablePercent","type":"uint256","internalType":"uint256"},{"name":"reservePercent","type":"uint256","internalType":"uint256"}],"stateMutability":"view"},{"type":"function","name":"owner","inputs":[],"outputs":[{"name":"","type":"address","internalType":"address"}],"stateMutability":"view"},{"type":"function","name":"renounceOwnership","inputs":[],"outputs":[],"stateMutability":"nonpayable"},{"type":"function","name":"stormModeAlloc","inputs":[],"outputs":[{"name":"lendingPercent","type":"uint256","internalType":"uint256"},{"name":"stablePercent","type":"uint256","internalType":"uint256"},{"name":"reservePercent","type":"uint256","internalType":"uint256"}],"stateMutability":"view"},{"type":"function","name":"transferOwnership","inputs":[{"name":"newOwner","type":"address","internalType":"address"}],"outputs":[],"stateMutability":"nonpayable"},{"type":"function","name":"updateAllocation","inputs":[{"name":"category","type":"string","internalType":"string"},{"name":"lendingPercent","type":"uint256","internalType":"uint256"},{"name":"stablePercent","type":"uint256","internalType":"uint256"},{"name":"reservePercent","type":"uint256","internalType":"uint256"}],"outputs":[],"stateMutability":"nonpayable"},{"type":"event","name":"AllocationUpdated","inputs":[{"name":"category","type":"string","indexed":false,"internalType":"string"},{"name":"lendingPercent","type":"uint256","indexed":false,"internalType":"uint256"},{"name":"stablePercent","type":"uint256","indexed":false,"internalType":"uint256"},{"name":"reservePercent","type":"uint256","indexed":false,"internalType":"uint256"}],"anonymous":false},{"type":"event","name":"OwnershipTransferred","inputs":[{"name":"previousOwner","type":"address","indexed":true,"internalType":"address"},{"name":"newOwner","type":"address","indexed":true,"internalType":"address"}],"anonymous":false},{"type":"error","name":"OwnableInvalidOwner","inputs":[{"name":"owner","type":"address","internalType":"address"}]},{"type":"error","name":"OwnableUnauthorizedAccount","inputs":[{"name":"account","type":"address","internalType":"address"}]}],"bytecode":{"object":"0x6080604090808252346101115733156100fc57505f8054336001600160a01b0319821681178355916001600160a01b03909116907f8be0079c531659141344cd1fd0a4f28419497f9722a3daafe3b4186f6b6457e09080a3600a81610062610115565b603c8152601e60208201520152603c600155601e600255600a600355610086610115565b6014826028928381528360208201520152806004558060055560146006556014826100af610115565b6019815260376020820152015260196007556037600855601460095580826100d5610115565b601981526023602082015201526019600a556023600b55600c555161071490816101498239f35b631e4fbdf760e01b81525f6004820152602490fd5b5f80fd5b60405190606082016001600160401b0381118382101761013457604052565b634e487b7160e01b5f52604160045260245ffdfe6080604081815260049182361015610015575f80fd5b5f3560e01c9081635fe131631461059057508063715018a6146105395780637b446a70146105085780638da5cb5b146104e157806390200f9b146104b1578063a26bc56614610480578063d0faf7ef14610149578063f214af88146101145763f2fde38b14610082575f80fd5b34610110576020366003190112610110576001600160a01b03823581811693919290849003610110576100b3610693565b83156100fa5750505f54826bffffffffffffffffffffffff60a01b8216175f55167f8be0079c531659141344cd1fd0a4f28419497f9722a3daafe3b4186f6b6457e05f80a3005b905f6024925191631e4fbdf760e01b8352820152fd5b5f80fd5b5034610110575f36600319011261011057600154600254600354925191825260208201526040810191909152606090f35b0390f35b5090346101105760803660031901126101105780359067ffffffffffffffff90818311610110573660238401121561011057828101359180831161011057602494858501948685369201011161011057853560443592606435946101ab610693565b60646101c0876101bb8887610626565b610626565b0361043e57603f969798845192602093848101908b8d8337808c81015f8882015203808252601f199b8c9101168101928184109084111761042c578288525190209084810190626c6f7760e81b82526003815261021c81610677565b5190208103610295575050509360a095938388935f805160206106bf8339815191529a978483601f985161024f81610647565b848152868482015201528160015583600255846003555b82519a8b9960808b528160808c01528b8b01375f8a878b010152880152860152606085015201168101030190a1005b855184810190656d656469756d60d01b8252600681526102b481610677565b519020810361030057505093838387938a9560a09a985f805160206106bf8339815191529d9a85601f9a516102e881610647565b84815288868201520152558360055584600655610266565b855184810190630d0d2ced60e31b825284815261031c81610677565b519020810361036a575050509360a095938388935f805160206106bf8339815191529a978483601f985161034f81610647565b84815286848201520152816007558360085584600955610266565b8551848101906473746f726d60d81b82526005815261038881610677565b519020036103d45750509360a095938388935f805160206106bf8339815191529a978483601f98516103b981610647565b8481528684820152015281600a5583600b5584600c55610266565b602f9060849386519362461bcd60e51b85528401528201527f496e76616c69642063617465676f72792e205573653a206c6f772c206d65646960448201526e756d2c20686967682c2073746f726d60881b6064820152fd5b83604186634e487b7160e01b5f52525ffd5b606490601a8a602087519362461bcd60e51b85528401528201527f416c6c6f636174696f6e2073756d206d757374206265203130300000000000006044820152fd5b5034610110575f36600319011261011057600a54600b54600c54925191825260208201526040810191909152606090f35b509034610110575f3660031901126101105754600554600654925191825260208201526040810191909152606090f35b5034610110575f366003190112610110575f5490516001600160a01b039091168152602090f35b5034610110575f36600319011261011057600754600854600954925191825260208201526040810191909152606090f35b34610110575f36600319011261011057610551610693565b5f80546001600160a01b0319811682556001600160a01b03167f8be0079c531659141344cd1fd0a4f28419497f9722a3daafe3b4186f6b6457e08280a3005b83833461011057366003190112610110576024358015158103610110576105bc610145918493356105d0565b918452602084015260408301526060820190565b9061061557602381116105ee57506001546002549160035491929190565b604b10610605576004546005549160065491929190565b6007546008549160095491929190565b50600a54600b5491600c5491929190565b9190820180921161063357565b634e487b7160e01b5f52601160045260245ffd5b6060810190811067ffffffffffffffff82111761066357604052565b634e487b7160e01b5f52604160045260245ffd5b6040810190811067ffffffffffffffff82111761066357604052565b5f546001600160a01b031633036106a657565b60405163118cdaa760e01b8152336004820152602490fdfeafe8933cd31f85fb0ae71ed6fffc1a6a137a49c47ac509f15e77d7cf22af57a8a2646970667358221220fd0f621cf698da644a08a57ecd17fb4935abbef226bd7e3f3c81bb844bd2f8f864736f6c63430008180033","linkReferences":{}},"methodIdentifiers":{"getAllocation(uint256,bool)":"5fe13163","highRiskAlloc()":"7b446a70","lowRiskAlloc()":"f214af88","medRiskAlloc()":"90200f9b","owner()":"8da5cb5b","renounceOwnership()":"715018a6","stormModeAlloc()":"a26bc566","transferOwnership(address)":"f2fde38b","updateAllocation(string,uint256,uint256,uint256)":"d0faf7ef"},"id":25}