{"abi":[{"type":"constructor","inputs":[{"name":"_strategyRouter","type":"address","internalType":"address"},{"name":"_vault","type":"address","internalType":"address"},{"name":"_oracle","type":"address","internalType":"address"},{"name":"_usdcToken","type":"address","internalType":"address"},{"name":"_stocks","type":"address[]","internalType":"address[]"}],"stateMutability":"nonpayable"},{"type":"function","name":"borrowedUSDC","inputs":[{"name":"","type":"address","internalType":"address"}],"outputs":[{"name":"","type":"uint256","internalType":"uint256"}],"stateMutability":"view"},{"type":"function","name":"collateralBalances","inputs":[{"name":"","type":"address","internalType":"address"}],"outputs":[{"name":"","type":"uint256","internalType":"uint256"}],"stateMutability":"view"},{"type":"function","name":"deposit","inputs":[{"name":"token","type":"address","internalType":"address"},{"name":"amount","type":"uint256","internalType":"uint256"}],"outputs":[],"stateMutability":"nonpayable"},{"type":"function","name":"emergencyWithdraw","inputs":[],"outputs":[],"stateMutability":"nonpayable"},{"type":"function","name":"harvest","inputs":[],"outputs":[],"stateMutability":"nonpayable"},{"type":"function","name":"isStockSupported","inputs":[{"name":"","type":"address","internalType":"address"}],"outputs":[{"name":"","type":"bool","internalType":"bool"}],"stateMutability":"view"},{"type":"function","name":"ltv","inputs":[],"outputs":[{"name":"","type":"uint256","internalType":"uint256"}],"stateMutability":"view"},{"type":"function","name":"oracle","inputs":[],"outputs":[{"name":"","type":"address","internalType":"contract PriceOracle"}],"stateMutability":"view"},{"type":"function","name":"owner","inputs":[],"outputs":[{"name":"","type":"address","internalType":"address"}],"stateMutability":"view"},{"type":"function","name":"renounceOwnership","inputs":[],"outputs":[],"stateMutability":"nonpayable"},{"type":"function","name":"setLTV","inputs":[{"name":"_ltv","type":"uint256","internalType":"uint256"}],"outputs":[],"stateMutability":"nonpayable"},{"type":"function","name":"setStableYieldStrategy","inputs":[{"name":"_stableYieldStrategy","type":"address","internalType":"address"}],"outputs":[],"stateMutability":"nonpayable"},{"type":"function","name":"stableYieldStrategy","inputs":[],"outputs":[{"name":"","type":"address","internalType":"address"}],"stateMutability":"view"},{"type":"function","name":"strategyRouter","inputs":[],"outputs":[{"name":"","type":"address","internalType":"address"}],"stateMutability":"view"},{"type":"function","name":"supportedStocks","inputs":[{"name":"","type":"uint256","internalType":"uint256"}],"outputs":[{"name":"","type":"address","internalType":"address"}],"stateMutability":"view"},{"type":"function","name":"totalAssets","inputs":[],"outputs":[{"name":"","type":"uint256","internalType":"uint256"}],"stateMutability":"view"},{"type":"function","name":"transferOwnership","inputs":[{"name":"newOwner","type":"address","internalType":"address"}],"outputs":[],"stateMutability":"nonpayable"},{"type":"function","name":"usdcToken","inputs":[],"outputs":[{"name":"","type":"address","internalType":"address"}],"stateMutability":"view"},{"type":"function","name":"vault","inputs":[],"outputs":[{"name":"","type":"address","internalType":"address"}],"stateMutability":"view"},{"type":"function","name":"withdraw","inputs":[{"name":"token","type":"address","internalType":"address"},{"name":"to","type":"address","internalType":"address"},{"name":"amount","type":"uint256","internalType":"uint256"}],"outputs":[],"stateMutability":"nonpayable"},{"type":"event","name":"Borrowed","inputs":[{"name":"stock","type":"address","indexed":true,"internalType":"address"},{"name":"stockAmount","type":"uint256","indexed":false,"internalType":"uint256"},{"name":"usdcBorrowed","type":"uint256","indexed":false,"internalType":"uint256"}],"anonymous":false},{"type":"event","name":"Deposited","inputs":[{"name":"token","type":"address","indexed":true,"internalType":"address"},{"name":"amount","type":"uint256","indexed":false,"internalType":"uint256"}],"anonymous":false},{"type":"event","name":"EmergencyWithdrawExecuted","inputs":[],"anonymous":false},{"type":"event","name":"Harvested","inputs":[{"name":"yieldUSD","type":"uint256","indexed":false,"internalType":"uint256"}],"anonymous":false},{"type":"event","name":"OwnershipTransferred","inputs":[{"name":"previousOwner","type":"address","indexed":true,"internalType":"address"},{"name":"newOwner","type":"address","indexed":true,"internalType":"address"}],"anonymous":false},{"type":"event","name":"Repaid","inputs":[{"name":"stock","type":"address","indexed":true,"internalType":"address"},{"name":"stockAmount","type":"uint256","indexed":false,"internalType":"uint256"},{"name":"usdcRepaid","type":"uint256","indexed":false,"internalType":"uint256"}],"anonymous":false},{"type":"event","name":"Withdrawn","inputs":[{"name":"token","type":"address","indexed":true,"internalType":"address"},{"name":"to","type":"address","indexed":true,"internalType":"address"},{"name":"amount","type":"uint256","indexed":false,"internalType":"uint256"}],"anonymous":false},{"type":"error","name":"AddressEmptyCode","inputs":[{"name":"target","type":"address","internalType":"address"}]},{"type":"error","name":"AddressInsufficientBalance","inputs":[{"name":"account","type":"address","internalType":"address"}]},{"type":"error","name":"FailedInnerCall","inputs":[]},{"type":"error","name":"OwnableInvalidOwner","inputs":[{"name":"owner","type":"address","internalType":"address"}]},{"type":"error","name":"OwnableUnauthorizedAccount","inputs":[{"name":"account","type":"address","internalType":"address"}]},{"type":"error","name":"SafeERC20FailedOperation","inputs":[{"name":"token","type":"address","internalType":"address"}]}],"bytecode":{"object":"0x604060806040523462000242576200150c803803806200001f8162000246565b92833981019160a08284031262000242576200003b826200026c565b9160206200004b8183016200026c565b62000059604084016200026c565b9062000068606085016200026c565b96608085015160018060401b039586821162000242570181601f8201121562000242578051958611620001f5578560051b908580620000a981850162000246565b809981520192820101928311620002425785809101915b83831062000227575050505033156200020f575f549060018060a01b039788809481809460018060a01b03199633888216175f55823391167f8be0079c531659141344cd1fd0a4f28419497f9722a3daafe3b4186f6b6457e05f80a360019c8d9c16878d5416178c5516856002541617600255168360035416176003556019600655168160055416176005555f955b62000165575b6040516112759081620002978239f35b83518610156200020957816200017c878662000281565b51169560099081549768010000000000000000891015620001f557898901808455891015620001e157899889935f52865f2001908482541617905583620001c4828862000281565b51165f52600a8552865f208260ff1982541617905501956200014f565b634e487b7160e01b5f52603260045260245ffd5b634e487b7160e01b5f52604160045260245ffd5b62000155565b604051631e4fbdf760e01b81525f6004820152602490fd5b819062000234846200026c565b8152019101908590620000c0565b5f80fd5b6040519190601f01601f191682016001600160401b03811183821017620001f557604052565b51906001600160a01b03821682036200024257565b8051821015620001e15760209160051b01019056fe60406080815260049081361015610014575f80fd5b5f915f3560e01c90816301e1d11414610cd457816311eac85514610cac57816329bc969d14610c755781632a4468c614610c3557816331bd38ed14610c0d5781634641257d14610b3757816347e7ef2414610811578163534d044b146107e95781636fb49d73146107ca578163715018a61461076e5781637dc0d1d0146107455781638c1c961b146106955781638da5cb5b1461066d5781639dbd107914610635578163b13de2661461059e578163b8896b9214610560578163d9caed12146102aa578163db2e21bc146101b9578163f2fde38b14610127575063fbfa77cf146100fc575f80fd5b3461012357816003193601126101235760025490516001600160a01b039091168152602090f35b5080fd5b9050346101b55760203660031901126101b557610142610e61565b9061014b6110be565b6001600160a01b0391821692831561019f5750505f54826bffffffffffffffffffffffff60a01b8216175f55167f8be0079c531659141344cd1fd0a4f28419497f9722a3daafe3b4186f6b6457e05f80a380f35b51631e4fbdf760e01b8152908101849052602490fd5b8280fd5b50503461012357816003193601126101235760018054909182916001600160a01b039081163314801561029d575b8015610291575b6101f790610f7e565b84925b610227575b847f8b6c919fff20551f29abe02af60a5cc2f998a4c6710f7132c9620783cd00e0f68180a180f35b60095483101561028c578383868361023f8497610e77565b90549060031b1c168082526020906007825286832080549283610269575b505050505001926101fa565b61028294600892555289878120558560025416906110e9565b865f80808061025d565b6101ff565b508454811633146101ee565b50806002541633146101e7565b9050346101b55760603660031901126101b5576102c5610e61565b6024356001600160a01b0381811694909391929085840361055c57846044359281600154163314801561054f575b8015610543575b61030390610f7e565b1694858852602093600a855261031e60ff848b205416610fc3565b8689526007855282892054938481111561053d5750835b8415908115610342578a80f35b670de0b6b3a764000091828702908782048414171561052a5761036b8c94939261037b92610f42565b8a85526008895286852054610f0a565b0492836103dd575b50506103ca91507fd1c19fbcd4551a5edfb66d43d2e337c04837afda3482b42bdf569a8fccdae5fb958785925260078652838a206103c283825461103a565b9055876110e9565b51908152a35f8080808080808080808a80f35b80825416816005541690803b15610526578651636ce5768960e11b81526001600160a01b03909216848301908152306020820152604081018790528591839182908490829060600103925af1801561051c57908491610508575b50506005541690813b156101b55783602484928388519586948593630852cd8d60e31b85528401525af180156104fe5790889392916104e6575b5095827f1b8cd61ed43bec7c6bdad3a18ffee613f99c853d16c50678d248d879e1b43438858794818b6103ca987fd1c19fbcd4551a5edfb66d43d2e337c04837afda3482b42bdf569a8fccdae5fb9d5260088c52206104d182825461103a565b90558151908682528a820152a2958991610383565b8193506104f290610ec0565b6101235786915f610471565b84513d84823e3d90fd5b61051190610ec0565b6101b557825f610437565b86513d86823e3d90fd5b8480fd5b634e487b7160e01b8c526011845260248cfd5b93610335565b508854821633146102fa565b50816002541633146102f3565b5f80fd5b5050346101235760203660031901126101235760209160ff9082906001600160a01b0361058b610e61565b168152600a855220541690519015158152f35b9050346101b55760203660031901126101b5578035916105bc6110be565b602883116105cc57505060065580f35b906020608492519162461bcd60e51b8352820152603a60248201527f436f6c6c61746572616c5969656c6453747261746567793a204c5456206d757360448201527f7420626520636f6e73657276617469766520283c3d20343025290000000000006064820152fd5b5050346101235760203660031901126101235760209181906001600160a01b0361065d610e61565b1681526008845220549051908152f35b505034610123578160031936011261012357905490516001600160a01b039091168152602090f35b919050346101b55760203660031901126101b55760206106b3610e61565b6106bb6110be565b83546001600160a01b0319166001600160a01b039182169081178555600554845163095ea7b360e01b8152958601919091525f196024860152849160449183918891165af190811561073c5750610710575080f35b6107319060203d602011610735575b6107298183610ee8565b810190611022565b5080f35b503d61071f565b513d84823e3d90fd5b50503461012357816003193601126101235760035490516001600160a01b039091168152602090f35b83346107c757806003193601126107c7576107876110be565b5f80546001600160a01b0319811682556001600160a01b03167f8be0079c531659141344cd1fd0a4f28419497f9722a3daafe3b4186f6b6457e08280a380f35b80fd5b5050346101235781600319360112610123576020906006549051908152f35b9050346101b557826003193601126101b5575490516001600160a01b03909116815260209150f35b9050346101b557816003193601126101b55761082b610e61565b6001546001600160a01b039360243591851633148015610b2a575b8015610b1e575b61085690610f7e565b8585841695868252602094600a865261087460ff8585205416610fc3565b8461087d578280f35b83516323b872dd60e01b87820152336024808301919091523060448301526064808301889052825291906108bc906108b6608482610ee8565b8a61112c565b888452600787528484206108d1878254610f71565b90558683600354168651938480926341976e0960e01b82528d8d8301525afa918215610ae0578492610aea575b5061092a60649261092461091e61091761093395611047565b928a610f0a565b91610f31565b90610f42565b60065490610f0a565b049561095782600554169761092461095261094d8b611047565b610f60565b610f31565b9687610996575b505050507f2da466a7b24304f47e87fa2e1e5a81b9831ce54fec19055ce277ca2f39ba42c4935051908152a25f808080808581808280f35b803b15610ac85784516340c10f1960e01b815230838201908152602081018a90529091859183919082908490829060400103925af18015610ae057908491610acc575b50889052600886528383206109ef888254610f71565b905581815416916005541690823b15610ac85784516311f9fbc960e21b81526001600160a01b03909216908201908152602081018890529091839183919082908490829060400103925af18015610abe5790879291610aa3575b50507feae9cfbc77fdd40ca899f36b608256063b2bc9d8178b0220f7ad513e178d6730827f2da466a7b24304f47e87fa2e1e5a81b9831ce54fec19055ce277ca2f39ba42c49681519086825287820152a2855f808061095e565b610aae919250610ec0565b610aba5784865f610a49565b8580fd5b83513d84823e3d90fd5b8380fd5b610ad590610ec0565b6101b557825f6109d9565b85513d86823e3d90fd5b87809295508193503d8311610b17575b610b048183610ee8565b8101031261055c5751889261092a6108fe565b503d610afa565b5085548516331461084d565b5084600254163314610846565b90503461055c575f36600319011261055c576001546001600160a01b0390811633148015610c00575b8015610bf4575b610b7090610f7e565b8154169081610ba7575b837f8e55ccfc9778ff8eba1646d765cf1982537ce0f9257054a17b48aad74525018360208551838152a180f35b813b1561055c578251634641257d60e01b8152915f918391829084905af18015610bea57610bd6575b80610b7a565b610be1919250610ec0565b5f906020610bd0565b82513d5f823e3d90fd5b505f5481163314610b67565b5080600254163314610b60565b823461055c575f36600319011261055c5760015490516001600160a01b039091168152602090f35b90503461055c57602036600319011261055c57359060095482101561055c57610c5f602092610e77565b905491519160018060a01b039160031b1c168152f35b823461055c57602036600319011261055c576020906001600160a01b03610c9a610e61565b165f5260078252805f20549051908152f35b823461055c575f36600319011261055c5760055490516001600160a01b039091168152602090f35b823461055c575f36600319011261055c576009545f92835b828110610cfd576020858551908152f35b610d0681610e77565b60018060a01b03809254600392831b1c1690815f5260209060078252875f20549081610d3a575b5050505050600101610cec565b8483919a969a54168951938480926341976e0960e01b8252878b83015260249687915afa908115610e57575f91610e29575b5060089261092461091e610d8993610d8389611047565b93610f0a565b935f5252865f20545f9381151580610e1d575b610dc5575b50505091610db4610dba92600194610f71565b90610f71565b949086808080610d2d565b610de59293945061095261094d610ddf9260055416611047565b90610f0a565b90600691828102928184041490151715610e0b57506064900490610db481610dba610da1565b634e487b7160e01b5f90815260118652fd5b50808754161515610d9c565b90508181813d8311610e50575b610e408183610ee8565b8101031261055c57516008610d6c565b503d610e36565b8a513d5f823e3d90fd5b600435906001600160a01b038216820361055c57565b600954811015610eac5760095f527f6e1540171b6c0c960b71a7020d9f60077f6af931a8bbf590da0223dacf75c7af01905f90565b634e487b7160e01b5f52603260045260245ffd5b67ffffffffffffffff8111610ed457604052565b634e487b7160e01b5f52604160045260245ffd5b90601f8019910116810190811067ffffffffffffffff821117610ed457604052565b81810292918115918404141715610f1d57565b634e487b7160e01b5f52601160045260245ffd5b60ff16604d8111610f1d57600a0a90565b8115610f4c570490565b634e487b7160e01b5f52601260045260245ffd5b60ff166012039060ff8211610f1d57565b91908201809211610f1d57565b15610f8557565b60405162461bcd60e51b815260206004820152601660248201527514dd1c985d1959de4e881d5b985d5d1a1bdc9a5e995960521b6044820152606490fd5b15610fca57565b60405162461bcd60e51b815260206004820152602a60248201527f436f6c6c61746572616c5969656c6453747261746567793a20756e737570706f604482015269727465642073746f636b60b01b6064820152608490fd5b9081602091031261055c5751801515810361055c5790565b91908203918211610f1d57565b60405163313ce56760e01b815290602090829060049082906001600160a01b03165afa5f9181611080575b5061107d5750601290565b90565b9091506020813d6020116110b6575b8161109c60209383610ee8565b8101031261055c575160ff8116810361055c57905f611072565b3d915061108f565b5f546001600160a01b031633036110d157565b60405163118cdaa760e01b8152336004820152602490fd5b60405163a9059cbb60e01b60208201526001600160a01b0392909216602483015260448083019390935291815261112a91611125606483610ee8565b61112c565b565b81516001600160a01b03909116915f91829160200182855af13d156111d0573d67ffffffffffffffff8111610ed45761118791604051916111776020601f19601f8401160184610ee8565b82523d5f602084013e5b836111dc565b80519081151591826111b5575b505061119d5750565b60249060405190635274afe760e01b82526004820152fd5b6111c89250602080918301019101611022565b155f80611194565b61118790606090611181565b9061120357508051156111f157805190602001fd5b604051630a12f52160e11b8152600490fd5b81511580611236575b611214575090565b604051639996b31560e01b81526001600160a01b039091166004820152602490fd5b50803b1561120c56fea264697066735822122088f0b488e6a9b1f95a7b1abce7bf271fc8026a1190faaf7db2f568087ee9284364736f6c63430008180033","linkReferences":{}},"methodIdentifiers":{"borrowedUSDC(address)":"9dbd1079","collateralBalances(address)":"29bc969d","deposit(address,uint256)":"47e7ef24","emergencyWithdraw()":"db2e21bc","harvest()":"4641257d","isStockSupported(address)":"b8896b92","ltv()":"6fb49d73","oracle()":"7dc0d1d0","owner()":"8da5cb5b","renounceOwnership()":"715018a6","setLTV(uint256)":"b13de266","setStableYieldStrategy(address)":"8c1c961b","stableYieldStrategy()":"534d044b","strategyRouter()":"31bd38ed","supportedStocks(uint256)":"2a4468c6","totalAssets()":"01e1d114","transferOwnership(address)":"f2fde38b","usdcToken()":"11eac855","vault()":"fbfa77cf","withdraw(address,address,uint256)":"d9caed12"},"id":41}