{"abi":[{"type":"constructor","inputs":[{"name":"_supportedTokens","type":"address[]","internalType":"address[]"}],"stateMutability":"nonpayable"},{"type":"function","name":"isSupportedToken","inputs":[{"name":"","type":"address","internalType":"address"}],"outputs":[{"name":"","type":"bool","internalType":"bool"}],"stateMutability":"view"},{"type":"function","name":"normalReservePercent","inputs":[],"outputs":[{"name":"","type":"uint256","internalType":"uint256"}],"stateMutability":"view"},{"type":"function","name":"owner","inputs":[],"outputs":[{"name":"","type":"address","internalType":"address"}],"stateMutability":"view"},{"type":"function","name":"renounceOwnership","inputs":[],"outputs":[],"stateMutability":"nonpayable"},{"type":"function","name":"setVaultAndRouter","inputs":[{"name":"_vault","type":"address","internalType":"address"},{"name":"_strategyRouter","type":"address","internalType":"address"}],"outputs":[],"stateMutability":"nonpayable"},{"type":"function","name":"stormReservePercent","inputs":[],"outputs":[{"name":"","type":"uint256","internalType":"uint256"}],"stateMutability":"view"},{"type":"function","name":"strategyRouter","inputs":[],"outputs":[{"name":"","type":"address","internalType":"address"}],"stateMutability":"view"},{"type":"function","name":"supportedTokens","inputs":[{"name":"","type":"uint256","internalType":"uint256"}],"outputs":[{"name":"","type":"address","internalType":"address"}],"stateMutability":"view"},{"type":"function","name":"totalValue","inputs":[{"name":"oracleAddress","type":"address","internalType":"address"}],"outputs":[{"name":"","type":"uint256","internalType":"uint256"}],"stateMutability":"view"},{"type":"function","name":"transferOwnership","inputs":[{"name":"newOwner","type":"address","internalType":"address"}],"outputs":[],"stateMutability":"nonpayable"},{"type":"function","name":"updateReservePercentages","inputs":[{"name":"_normal","type":"uint256","internalType":"uint256"},{"name":"_storm","type":"uint256","internalType":"uint256"}],"outputs":[],"stateMutability":"nonpayable"},{"type":"function","name":"vault","inputs":[],"outputs":[{"name":"","type":"address","internalType":"address"}],"stateMutability":"view"},{"type":"function","name":"withdraw","inputs":[{"name":"token","type":"address","internalType":"address"},{"name":"to","type":"address","internalType":"address"},{"name":"amount","type":"uint256","internalType":"uint256"}],"outputs":[],"stateMutability":"nonpayable"},{"type":"event","name":"OwnershipTransferred","inputs":[{"name":"previousOwner","type":"address","indexed":true,"internalType":"address"},{"name":"newOwner","type":"address","indexed":true,"internalType":"address"}],"anonymous":false},{"type":"event","name":"ReservePercentUpdated","inputs":[{"name":"normalReserve","type":"uint256","indexed":false,"internalType":"uint256"},{"name":"stormReserve","type":"uint256","indexed":false,"internalType":"uint256"}],"anonymous":false},{"type":"event","name":"StrategyRouterUpdated","inputs":[{"name":"newRouter","type":"address","indexed":false,"internalType":"address"}],"anonymous":false},{"type":"event","name":"TokenWithdrawn","inputs":[{"name":"token","type":"address","indexed":true,"internalType":"address"},{"name":"to","type":"address","indexed":true,"internalType":"address"},{"name":"amount","type":"uint256","indexed":false,"internalType":"uint256"}],"anonymous":false},{"type":"event","name":"VaultUpdated","inputs":[{"name":"newVault","type":"address","indexed":false,"internalType":"address"}],"anonymous":false},{"type":"error","name":"AddressEmptyCode","inputs":[{"name":"target","type":"address","internalType":"address"}]},{"type":"error","name":"AddressInsufficientBalance","inputs":[{"name":"account","type":"address","internalType":"address"}]},{"type":"error","name":"FailedInnerCall","inputs":[]},{"type":"error","name":"OwnableInvalidOwner","inputs":[{"name":"owner","type":"address","internalType":"address"}]},{"type":"error","name":"OwnableUnauthorizedAccount","inputs":[{"name":"account","type":"address","internalType":"address"}]},{"type":"error","name":"SafeERC20FailedOperation","inputs":[{"name":"token","type":"address","internalType":"address"}]}],"bytecode":{"object":"0x60406080604052346101b357610c3c8038038061001b816101b7565b928339810160209283838303126101b35782516001600160401b03938482116101b357019180601f840112156101b3578251938411610159576005928460051b9086806100698185016101b7565b8098815201928201019283116101b3578601905b82821061019457505050331561017c575f8054336001600160a01b031980831682178455946001600160a01b039390928416907f8be0079c531659141344cd1fd0a4f28419497f9722a3daafe3b4186f6b6457e09080a3600a60055560196006555f5b855181101561016d57828782841b8801015116906003918254906801000000000000000082101561015957600191828101808655811015610145576001945f528a5f200181898254161790555f5260048952855f209060ff19825416179055016100e0565b634e487b7160e01b5f52603260045260245ffd5b634e487b7160e01b5f52604160045260245ffd5b604051610a5f90816101dd8239f35b604051631e4fbdf760e01b81525f6004820152602490fd5b81516001600160a01b03811681036101b357815290860190860161007d565b5f80fd5b6040519190601f01601f191682016001600160401b038111838210176101595760405256fe6080604090808252600480361015610015575f80fd5b5f3560e01c918263240028e8146108b85750816330b0680b146106a457816330f990c31461068657816331bd38ed1461065e5781633f43a135146105a05781636014be1214610582578163715018a61461052b5781638da5cb5b14610504578163939faff414610455578163c625562614610415578163d9caed1214610167578163f2fde38b146100da575063fbfa77cf146100af575f80fd5b346100d6575f3660031901126100d65760015490516001600160a01b039091168152602090f35b5f80fd5b9050346100d65760203660031901126100d6576100f56108f0565b906100fe61099b565b6001600160a01b039182169283156101515750505f54826bffffffffffffffffffffffff60a01b8216175f55167f8be0079c531659141344cd1fd0a4f28419497f9722a3daafe3b4186f6b6457e05f80a3005b905f6024925191631e4fbdf760e01b8352820152fd5b9050346100d65760603660031901126100d6576101826108f0565b9061018b610906565b6001549092604435916001600160a01b039190821633148015610408575b80156103fc575b156103b957811692835f5260209281845260ff875f205416156103765786516370a0823160e01b81523083820152908482602481895afa91821561036c575f9261033d575b50818111156103355750915b8261020857005b8651908482019663a9059cbb60e01b8852169586602483015283604483015260448252608082019167ffffffffffffffff9281811084821117610322578952515f9182919082895af13d15610315573d91821161030257906102899188519161027a87601f19601f8401160184610965565b82523d5f8784013e5b866109c6565b80518481151591826102e1575b505090506102ca57507f8210728e7c071f615b840ee026032693858fbcd5e5359e67e438c890f59e562092939451908152a3005b8551635274afe760e01b8152908101849052602490fd5b83809293500103126100d6578301518015908115036100d65780845f610296565b604183634e487b7160e01b5f525260245ffd5b6102899150606090610283565b604185634e487b7160e01b5f525260245ffd5b905091610201565b9091508481813d8311610365575b6103558183610965565b810103126100d65751905f6101f5565b503d61034b565b88513d5f823e3d90fd5b865162461bcd60e51b8152808301859052601f60248201527f526573657276655661756c743a20756e737570706f7274656420746f6b656e006044820152606490fd5b855162461bcd60e51b8152602081860152601a60248201527f526573657276655661756c743a20756e617574686f72697a65640000000000006044820152606490fd5b50815f541633146101b0565b50816002541633146101a9565b9050346100d65760203660031901126100d65735906003548210156100d65761043f60209261091c565b60018060a01b0391549060031b1c169051908152f35b82346100d657806003193601126100d65760207fadd0bc0f5a68c451713ad003b5bef3f01c6c3cd8712f8c18d0f6bf15a741a9f5916104926108f0565b907f161584aed96e7f34998117c9ad67e2d21ff46d2a42775c22b11ed282f3c7b2cd836104bd610906565b936104c661099b565b60018060a01b03809116906bffffffffffffffffffffffff60a01b958287600154161760015516809560025416176002558351908152a151908152a1005b82346100d6575f3660031901126100d6575f5490516001600160a01b039091168152602090f35b346100d6575f3660031901126100d65761054361099b565b5f80546001600160a01b0319811682556001600160a01b03167f8be0079c531659141344cd1fd0a4f28419497f9722a3daafe3b4186f6b6457e08280a3005b82346100d6575f3660031901126100d6576020906005549051908152f35b82346100d657806003193601126100d65781356024356105be61099b565b606482111580610653575b15610606577ffe278307c5e8b0fc32ce630cdcf1b87f070bd9cb6c402843da6db1b4d40ee8829350816005558060065582519182526020820152a1005b825162461bcd60e51b8152602081860152602160248201527f526573657276655661756c743a20696e76616c69642070657263656e746167656044820152607360f81b6064820152608490fd5b5060648111156105c9565b82346100d6575f3660031901126100d65760025490516001600160a01b039091168152602090f35b82346100d6575f3660031901126100d6576020906006549051908152f35b9050346100d657602091826003193601126100d6576001600160a01b03806106ca6108f0565b16925f935f9260038054945b8581106106e65788888851908152f35b826106f08261091c565b905490841b1c1687516370a0823160e01b815230878201526024918b828481845afa9182156108ae575f9261087f575b5081158015610736575b505050506001016106d6565b8a516341976e0960e01b8152898101839052949b94918d8386818c5afa928315610875578a918f918e905f96610840575b505163313ce56760e01b815292829184919082905afa9182915f93610806575b505061080057506012915b8084029384041417156107ee5760ff16604d81116107ee57600a0a9081156107dc570482018092116107ca57509660015f808061072a565b634e487b7160e01b5f90815260118752fd5b82601289634e487b7160e01b5f52525ffd5b82601189634e487b7160e01b5f52525ffd5b91610792565b9080929350813d8311610839575b61081e8183610965565b810103126100d6575160ff811681036100d657905f8f610787565b503d610814565b935050935081813d831161086e575b6108598183610965565b810103126100d657519189908e908d82610767565b503d61084f565b8c513d5f823e3d90fd5b9091508b81813d83116108a7575b6108978183610965565b810103126100d65751905f610720565b503d61088d565b8a513d5f823e3d90fd5b9150346100d65760203660031901126100d65760209260ff916001600160a01b036108e16108f0565b165f5284525f20541615158152f35b600435906001600160a01b03821682036100d657565b602435906001600160a01b03821682036100d657565b6003548110156109515760035f527fc2575a0e9e593c00f959f8c92f12db2869c3395a3b0502d05e2516446f71f85b01905f90565b634e487b7160e01b5f52603260045260245ffd5b90601f8019910116810190811067ffffffffffffffff82111761098757604052565b634e487b7160e01b5f52604160045260245ffd5b5f546001600160a01b031633036109ae57565b60405163118cdaa760e01b8152336004820152602490fd5b906109ed57508051156109db57805190602001fd5b604051630a12f52160e11b8152600490fd5b81511580610a20575b6109fe575090565b604051639996b31560e01b81526001600160a01b039091166004820152602490fd5b50803b156109f656fea26469706673582212209e496886cb94941add34a8aaebec2b8a8a67da58878cb942411d48fb0cb330a364736f6c63430008180033","linkReferences":{}},"methodIdentifiers":{"isSupportedToken(address)":"240028e8","normalReservePercent()":"6014be12","owner()":"8da5cb5b","renounceOwnership()":"715018a6","setVaultAndRouter(address,address)":"939faff4","stormReservePercent()":"30f990c3","strategyRouter()":"31bd38ed","supportedTokens(uint256)":"c6255626","totalValue(address)":"30b0680b","transferOwnership(address)":"f2fde38b","updateReservePercentages(uint256,uint256)":"3f43a135","vault()":"fbfa77cf","withdraw(address,address,uint256)":"d9caed12"},"id":28}