{"abi":[{"type":"function","name":"balances","inputs":[{"name":"","type":"address","internalType":"address"},{"name":"","type":"address","internalType":"address"}],"outputs":[{"name":"","type":"uint256","internalType":"uint256"}],"stateMutability":"view"},{"type":"function","name":"calculateInterest","inputs":[{"name":"user","type":"address","internalType":"address"},{"name":"token","type":"address","internalType":"address"},{"name":"amount","type":"uint256","internalType":"uint256"}],"outputs":[{"name":"","type":"uint256","internalType":"uint256"}],"stateMutability":"view"},{"type":"function","name":"deposit","inputs":[{"name":"token","type":"address","internalType":"address"},{"name":"amount","type":"uint256","internalType":"uint256"}],"outputs":[],"stateMutability":"nonpayable"},{"type":"function","name":"depositTimes","inputs":[{"name":"","type":"address","internalType":"address"},{"name":"","type":"address","internalType":"address"}],"outputs":[{"name":"","type":"uint256","internalType":"uint256"}],"stateMutability":"view"},{"type":"function","name":"withdraw","inputs":[{"name":"token","type":"address","internalType":"address"},{"name":"amount","type":"uint256","internalType":"uint256"}],"outputs":[],"stateMutability":"nonpayable"},{"type":"event","name":"Deposited","inputs":[{"name":"user","type":"address","indexed":true,"internalType":"address"},{"name":"token","type":"address","indexed":true,"internalType":"address"},{"name":"amount","type":"uint256","indexed":false,"internalType":"uint256"}],"anonymous":false},{"type":"event","name":"Withdrawn","inputs":[{"name":"user","type":"address","indexed":true,"internalType":"address"},{"name":"token","type":"address","indexed":true,"internalType":"address"},{"name":"amount","type":"uint256","indexed":false,"internalType":"uint256"}],"anonymous":false}],"bytecode":{"object":"0x60808060405234610016576104f7908161001b8239f35b5f80fdfe60806040908082526004361015610014575f80fd5b5f3560e01c90816347e7ef241461026f575080634ffc7e9f14610237578063640ae93c146101ee578063c23f001f146101a65763f3fef3a314610055575f80fd5b346101a257806003193601126101a25761006d610398565b90602435335f526020905f8252825f209360018060a01b03811694855f52835281845f20541061016757816100a29133610440565b90335f525f8352835f20855f528352835f206100bf828254610433565b90556100cb8282610412565b84519063a9059cbb60e01b8252336004830152602482015283816044815f8a5af1801561015d57917fd1c19fbcd4551a5edfb66d43d2e337c04837afda3482b42bdf569a8fccdae5fb94939161012693610130575b50610412565b92519283523392a3005b61014f90853d8711610156575b61014781836103c4565b8101906103fa565b505f610120565b503d61013d565b85513d5f823e3d90fd5b835162461bcd60e51b8152600481018490526014602482015273496e73756666696369656e742062616c616e636560601b6044820152606490fd5b5f80fd5b50346101a257806003193601126101a2576020906101c2610398565b6101ca6103ae565b9060018060a01b038091165f525f8452825f2091165f528252805f20549051908152f35b50346101a257806003193601126101a25760209061020a610398565b6102126103ae565b9060018060a01b038091165f5260018452825f2091165f528252805f20549051908152f35b50346101a25760603660031901126101a257602090610268610257610398565b61025f6103ae565b60443591610440565b9051908152f35b9050346101a257816003193601126101a257610289610398565b602435918215610361575082516323b872dd60e01b815233600482015230602482015260448101839052926001600160a01b0391909116919060209081856064815f885af1948515610357577f8752a472e571a816aea92eec8dae9baf628e840f4929fbcc2d155e6233ff68a793949561033a575b50335f525f8252805f20855f528252805f2061031b858254610412565b9055335f5260018252805f20855f52825242815f2055519283523392a3005b61035090833d85116101565761014781836103c4565b505f6102fe565b50513d5f823e3d90fd5b62461bcd60e51b81526020600482015260126024820152710416d6f756e74206d757374206265203e20360741b6044820152606490fd5b600435906001600160a01b03821682036101a257565b602435906001600160a01b03821682036101a257565b90601f8019910116810190811067ffffffffffffffff8211176103e657604052565b634e487b7160e01b5f52604160045260245ffd5b908160209103126101a2575180151581036101a25790565b9190820180921161041f57565b634e487b7160e01b5f52601160045260245ffd5b9190820391821161041f57565b60018060a01b038091165f52600160205260405f2091165f5260205261046a60405f205442610433565b80156104bb576005820282159083810460051482171561041f5760058385020292818404149015171561041f57828004600114171561041f5763bbf81e00620186a06104b893049104610412565b90565b50505f9056fea2646970667358221220b259298ae3b82f9114e023dac72d057591821de07cb2152f64f9a281aedf829d64736f6c63430008180033","linkReferences":{}},"methodIdentifiers":{"balances(address,address)":"c23f001f","calculateInterest(address,address,uint256)":"4ffc7e9f","deposit(address,uint256)":"47e7ef24","depositTimes(address,address)":"640ae93c","withdraw(address,uint256)":"f3fef3a3"},"id":39}