{"abi":[{"type":"constructor","inputs":[{"name":"_strategyRouter","type":"address","internalType":"address"},{"name":"_vault","type":"address","internalType":"address"},{"name":"_oracle","type":"address","internalType":"address"},{"name":"_lendingMarket","type":"address","internalType":"address"},{"name":"_usdcToken","type":"address","internalType":"address"}],"stateMutability":"nonpayable"},{"type":"function","name":"deposit","inputs":[{"name":"token","type":"address","internalType":"address"},{"name":"amount","type":"uint256","internalType":"uint256"}],"outputs":[],"stateMutability":"nonpayable"},{"type":"function","name":"emergencyWithdraw","inputs":[],"outputs":[],"stateMutability":"nonpayable"},{"type":"function","name":"harvest","inputs":[],"outputs":[],"stateMutability":"nonpayable"},{"type":"function","name":"lendingMarket","inputs":[],"outputs":[{"name":"","type":"address","internalType":"contract MockLendingMarket"}],"stateMutability":"view"},{"type":"function","name":"oracle","inputs":[],"outputs":[{"name":"","type":"address","internalType":"contract PriceOracle"}],"stateMutability":"view"},{"type":"function","name":"owner","inputs":[],"outputs":[{"name":"","type":"address","internalType":"address"}],"stateMutability":"view"},{"type":"function","name":"renounceOwnership","inputs":[],"outputs":[],"stateMutability":"nonpayable"},{"type":"function","name":"strategyRouter","inputs":[],"outputs":[{"name":"","type":"address","internalType":"address"}],"stateMutability":"view"},{"type":"function","name":"totalAssets","inputs":[],"outputs":[{"name":"","type":"uint256","internalType":"uint256"}],"stateMutability":"view"},{"type":"function","name":"transferOwnership","inputs":[{"name":"newOwner","type":"address","internalType":"address"}],"outputs":[],"stateMutability":"nonpayable"},{"type":"function","name":"usdcToken","inputs":[],"outputs":[{"name":"","type":"address","internalType":"address"}],"stateMutability":"view"},{"type":"function","name":"vault","inputs":[],"outputs":[{"name":"","type":"address","internalType":"address"}],"stateMutability":"view"},{"type":"function","name":"withdraw","inputs":[{"name":"token","type":"address","internalType":"address"},{"name":"to","type":"address","internalType":"address"},{"name":"amount","type":"uint256","internalType":"uint256"}],"outputs":[],"stateMutability":"nonpayable"},{"type":"event","name":"Deposited","inputs":[{"name":"token","type":"address","indexed":true,"internalType":"address"},{"name":"amount","type":"uint256","indexed":false,"internalType":"uint256"}],"anonymous":false},{"type":"event","name":"EmergencyWithdrawExecuted","inputs":[],"anonymous":false},{"type":"event","name":"Harvested","inputs":[{"name":"yieldUSD","type":"uint256","indexed":false,"internalType":"uint256"}],"anonymous":false},{"type":"event","name":"OwnershipTransferred","inputs":[{"name":"previousOwner","type":"address","indexed":true,"internalType":"address"},{"name":"newOwner","type":"address","indexed":true,"internalType":"address"}],"anonymous":false},{"type":"event","name":"Withdrawn","inputs":[{"name":"token","type":"address","indexed":true,"internalType":"address"},{"name":"to","type":"address","indexed":true,"internalType":"address"},{"name":"amount","type":"uint256","indexed":false,"internalType":"uint256"}],"anonymous":false},{"type":"error","name":"AddressEmptyCode","inputs":[{"name":"target","type":"address","internalType":"address"}]},{"type":"error","name":"AddressInsufficientBalance","inputs":[{"name":"account","type":"address","internalType":"address"}]},{"type":"error","name":"FailedInnerCall","inputs":[]},{"type":"error","name":"OwnableInvalidOwner","inputs":[{"name":"owner","type":"address","internalType":"address"}]},{"type":"error","name":"OwnableUnauthorizedAccount","inputs":[{"name":"account","type":"address","internalType":"address"}]},{"type":"error","name":"SafeERC20FailedOperation","inputs":[{"name":"token","type":"address","internalType":"address"}]}],"bytecode":{"object":"0x608060409080825234620001795760a081620013c48038038091620000258285620001a7565b83398101031262000179576200003b81620001df565b6200004960208301620001df565b62000056848401620001df565b6200007260806200006a60608701620001df565b9501620001df565b90331562000190575f8054336001600160a01b0319808316821784558951986020988a986044988a98949690956001600160a01b039586959486949193859384929183167f8be0079c531659141344cd1fd0a4f28419497f9722a3daafe3b4186f6b6457e08e80a3168960015416176001551687600254161760025516856003541617600355169182846004541617600455168092600554161760055563095ea7b360e01b84526004840152811960248401525af18015620001865762000143575b50516111cf9081620001f58239f35b6020813d6020116200017d575b816200015f60209383620001a7565b810103126200017957518015150362000179575f62000134565b5f80fd5b3d915062000150565b82513d5f823e3d90fd5b8551631e4fbdf760e01b81525f6004820152602490fd5b601f909101601f19168101906001600160401b03821190821017620001cb57604052565b634e487b7160e01b5f52604160045260245ffd5b51906001600160a01b0382168203620001795756fe60406080815260049081361015610014575f80fd5b5f915f3560e01c90816301e1d11414610c1057816311eac85514610be857816331bd38ed14610bc05781634641257d1461088b57816347e7ef241461072f57816370a5c27414610707578163715018a6146106ab5781637dc0d1d0146106825781638da5cb5b1461065a578163d9caed1214610383578163db2e21bc1461016c578163f2fde38b146100da575063fbfa77cf146100af575f80fd5b346100d657816003193601126100d65760025490516001600160a01b039091168152602090f35b5080fd5b905034610168576020366003190112610168576100f5610c33565b906100fe61100f565b6001600160a01b039182169283156101525750505f54826bffffffffffffffffffffffff60a01b8216175f55167f8be0079c531659141344cd1fd0a4f28419497f9722a3daafe3b4186f6b6457e05f80a380f35b51631e4fbdf760e01b8152908101849052602490fd5b8280fd5b919050346101685782600319360112610168576001546001600160a01b039290831633148015610376575b801561036a575b6101a790610ef9565b8054600554835163c23f001f60e01b8152308185019081529186166001600160a01b0381166020808501919091529493889390881692908690829081906040010381865afa90811561036057849161032f575b50806102b7575b505050508360055416918351916370a0823160e01b835230908301528082602481865afa9384156102ae5750859361027a575b505081610264575b837f8b6c919fff20551f29abe02af60a5cc2f998a4c6710f7132c9620783cd00e0f68180a180f35b61027292600254169061103a565b5f808061023c565b9080929350813d83116102a7575b6102928183610c71565b810103126102a35751905f80610234565b5f80fd5b503d610288565b513d87823e3d90fd5b823b1561032b57865163f3fef3a360e01b81526001600160a01b0390921685830190815260208101919091529091839183919082908490829060400103925af1801561032157610309575b8080610201565b61031290610c49565b61031d57845f610302565b8480fd5b85513d84823e3d90fd5b8380fd5b809450868092503d8311610359575b6103488183610c71565b810103126102a3578792515f6101fa565b503d61033e565b87513d86823e3d90fd5b5083548316331461019e565b5082600254163314610197565b9050346101685760603660031901126101685761039e610c33565b6001600160a01b036024358181169490928584036102a35760443583600154163314801561064d575b8015610641575b6103d790610ef9565b8360055416956103eb858416978814610f3e565b8351946370a0823160e01b93848752308388015260209687816024818d5afa908115610637578c9161060a575b508481106104d5575b505050835192835230908301528382602481895afa9182156104cb57889261049c575b50818111156104945750905b81610459578680f35b610485827fd1c19fbcd4551a5edfb66d43d2e337c04837afda3482b42bdf569a8fccdae5fb958761103a565b51908152a35f80808080808680f35b905090610450565b9091508381813d83116104c4575b6104b48183610c71565b810103126102a35751905f610444565b503d6104aa565b83513d8a823e3d90fd5b8403918483116105f7578354875163c23f001f60e01b8152308187019081526001600160a01b03851660208201528e9593909216939290918a90839081906040010381875afa9182156105ed5785926105bb575b50818111156105b457505b80610540575b50610421565b823b1561032b57875163f3fef3a360e01b81526001600160a01b0390921685830190815260208101919091529091839183919082908490829060400103925af180156105aa57610592575b808061053a565b61059b90610c49565b6105a657885f61058b565b8880fd5b86513d84823e3d90fd5b9050610534565b945090508884813d81116105e6575b6105d48183610c71565b810103126102a3578c9351905f610529565b503d6105ca565b89513d87823e3d90fd5b634e487b7160e01b8c526011845260248cfd5b90508781813d8311610630575b6106218183610c71565b810103126102a357515f610418565b503d610617565b87513d8e823e3d90fd5b508754841633146103ce565b50836002541633146103c7565b5050346100d657816003193601126100d657905490516001600160a01b039091168152602090f35b5050346100d657816003193601126100d65760035490516001600160a01b039091168152602090f35b83346107045780600319360112610704576106c461100f565b5f80546001600160a01b0319811682556001600160a01b03167f8be0079c531659141344cd1fd0a4f28419497f9722a3daafe3b4186f6b6457e08280a380f35b80fd5b9050346101685782600319360112610168575490516001600160a01b03909116815260209150f35b905034610168578160031936011261016857610749610c33565b6001546001600160a01b0393602435939092869286163314801561087e575b8015610872575b61077890610ef9565b85600554169561078c818316978814610f3e565b85610795578380f35b84516323b872dd60e01b6020820152336024820152306044820152606480820188905281526107cf906107c9608482610c71565b8861107d565b82541691823b1561032b5784516311f9fbc960e21b81526001600160a01b03909216908201908152602081018690529091839183919082908490829060400103925af1801561086857610854575b50507f2da466a7b24304f47e87fa2e1e5a81b9831ce54fec19055ce277ca2f39ba42c49160209151908152a25f8080838180808380f35b61085d90610c49565b61032b57835f61081d565b83513d84823e3d90fd5b5082548616331461076f565b5085600254163314610768565b919050346102a3575f3660031901126102a3576001546001600160a01b039190821633148015610bb3575b8015610ba7575b6108c690610ef9565b8254600554825163c23f001f60e01b8152308187019081529185166001600160a01b038116602080850191909152919691959384169493928690889081906040010381885afa968715610b35575f97610b78575b505f9487610950575b887f8e55ccfc9778ff8eba1646d765cf1982537ce0f9257054a17b48aad74525018388888851908152a180f35b8451634ffc7e9f60e01b8152308482019081526001600160a01b03841660208201526040810199909952978790899081906060010381845afa978815610b6e575f98610b3f575b50871561092357809192939495503b156102a357845163f3fef3a360e01b81526001600160a01b03909216838301908152602081018890525f91839182908490829060400103925af18015610b3557610b22575b508582825416836005541690803b156101685785516311f9fbc960e21b81526001600160a01b03909216848301908152602081018990528391839182908490829060400103925af180156103215790869291610b07575b505060035460055485516341976e0960e01b81529085169381018490529384916024918391165afa918215610afd578692610aca575b5093610aba610ab4610ac093610aae7f8e55ccfc9778ff8eba1646d765cf1982537ce0f9257054a17b48aad74525018398610f9b565b93610cb4565b91610cc7565b90610cd8565b905f808080610923565b9150938382813d8311610af6575b610ae28183610c71565b810103126102a35790519093610aba610a78565b503d610ad8565b83513d88823e3d90fd5b610b12919250610c49565b610b1e5783865f610a42565b8580fd5b610b2d919650610c49565b5f945f6109eb565b84513d5f823e3d90fd5b9097508681813d8311610b67575b610b578183610c71565b810103126102a35751965f610997565b503d610b4d565b85513d5f823e3d90fd5b9096508581813d8311610ba0575b610b908183610c71565b810103126102a35751955f61091a565b503d610b86565b505f54821633146108bd565b50816002541633146108b6565b82346102a3575f3660031901126102a35760015490516001600160a01b039091168152602090f35b82346102a3575f3660031901126102a35760055490516001600160a01b039091168152602090f35b82346102a3575f3660031901126102a357602090610c2c610cf6565b9051908152f35b600435906001600160a01b03821682036102a357565b67ffffffffffffffff8111610c5d57604052565b634e487b7160e01b5f52604160045260245ffd5b90601f8019910116810190811067ffffffffffffffff821117610c5d57604052565b91908201809211610ca057565b634e487b7160e01b5f52601160045260245ffd5b81810292918115918404141715610ca057565b60ff16604d8111610ca057600a0a90565b8115610ce2570490565b634e487b7160e01b5f52601260045260245ffd5b600554604080516370a0823160e01b815230600482015290916020916001600160a01b0391821691908381602481865afa908115610b6e575f91610ecc575b5060048054865163c23f001f60e01b815230928101929092526001600160a01b03851660248301529091908316908583604481855afa928315610e93575f93610e9d575b508651634ffc7e9f60e01b81523060048201526001600160a01b038616602482015260448101849052918690839060649082905afa918215610e93575f92610e62575b50610dcf92610dca91610c93565b610c93565b9283610dde5750505050505f90565b80602492600354168651938480926341976e0960e01b82528760048301525afa948515610e5957505f94610e25575b5050610ab4610e2293610aae610aba93610f9b565b90565b90809450813d8311610e52575b610e3c8183610c71565b810103126102a357915191610ab4610aba610e0d565b503d610e32565b513d5f823e3d90fd5b9091508581813d8311610e8c575b610e7a8183610c71565b810103126102a3575190610dcf610dbc565b503d610e70565b87513d5f823e3d90fd5b9092508581813d8311610ec5575b610eb58183610c71565b810103126102a35751915f610d79565b503d610eab565b90508381813d8311610ef2575b610ee38183610c71565b810103126102a357515f610d35565b503d610ed9565b15610f0057565b60405162461bcd60e51b815260206004820152601660248201527514dd1c985d1959de4e881d5b985d5d1a1bdc9a5e995960521b6044820152606490fd5b15610f4557565b60405162461bcd60e51b815260206004820152602860248201527f537461626c655969656c6453747261746567793a206f6e6c79205553444320736044820152671d5c1c1bdc9d195960c21b6064820152608490fd5b60405163313ce56760e01b815290602090829060049082906001600160a01b03165afa5f9181610fd1575b50610e225750601290565b9091506020813d602011611007575b81610fed60209383610c71565b810103126102a3575160ff811681036102a357905f610fc6565b3d9150610fe0565b5f546001600160a01b0316330361102257565b60405163118cdaa760e01b8152336004820152602490fd5b60405163a9059cbb60e01b60208201526001600160a01b0392909216602483015260448083019390935291815261107b91611076606483610c71565b61107d565b565b81516001600160a01b03909116915f91829160200182855af13d1561112a573d67ffffffffffffffff8111610c5d576110d891604051916110c86020601f19601f8401160184610c71565b82523d5f602084013e5b83611136565b8051908115159182611106575b50506110ee5750565b60249060405190635274afe760e01b82526004820152fd5b81925090602091810103126102a357602001518015908115036102a3575f806110e5565b6110d8906060906110d2565b9061115d575080511561114b57805190602001fd5b604051630a12f52160e11b8152600490fd5b81511580611190575b61116e575090565b604051639996b31560e01b81526001600160a01b039091166004820152602490fd5b50803b1561116656fea26469706673582212205324387287df9545619833b4993b1402ea3112c1acf8660cd67b5553f2262eac64736f6c63430008180033","linkReferences":{}},"methodIdentifiers":{"deposit(address,uint256)":"47e7ef24","emergencyWithdraw()":"db2e21bc","harvest()":"4641257d","lendingMarket()":"70a5c274","oracle()":"7dc0d1d0","owner()":"8da5cb5b","renounceOwnership()":"715018a6","strategyRouter()":"31bd38ed","totalAssets()":"01e1d114","transferOwnership(address)":"f2fde38b","usdcToken()":"11eac855","vault()":"fbfa77cf","withdraw(address,address,uint256)":"d9caed12"},"id":44}