{"abi":[{"type":"constructor","inputs":[],"stateMutability":"nonpayable"},{"type":"function","name":"getPrice","inputs":[{"name":"token","type":"address","internalType":"address"}],"outputs":[{"name":"","type":"uint256","internalType":"uint256"}],"stateMutability":"view"},{"type":"function","name":"owner","inputs":[],"outputs":[{"name":"","type":"address","internalType":"address"}],"stateMutability":"view"},{"type":"function","name":"renounceOwnership","inputs":[],"outputs":[],"stateMutability":"nonpayable"},{"type":"function","name":"setPrice","inputs":[{"name":"token","type":"address","internalType":"address"},{"name":"price","type":"uint256","internalType":"uint256"}],"outputs":[],"stateMutability":"nonpayable"},{"type":"function","name":"transferOwnership","inputs":[{"name":"newOwner","type":"address","internalType":"address"}],"outputs":[],"stateMutability":"nonpayable"},{"type":"event","name":"OwnershipTransferred","inputs":[{"name":"previousOwner","type":"address","indexed":true,"internalType":"address"},{"name":"newOwner","type":"address","indexed":true,"internalType":"address"}],"anonymous":false},{"type":"event","name":"PriceUpdated","inputs":[{"name":"token","type":"address","indexed":true,"internalType":"address"},{"name":"price","type":"uint256","indexed":false,"internalType":"uint256"}],"anonymous":false},{"type":"error","name":"OwnableInvalidOwner","inputs":[{"name":"owner","type":"address","internalType":"address"}]},{"type":"error","name":"OwnableUnauthorizedAccount","inputs":[{"name":"account","type":"address","internalType":"address"}]}],"bytecode":{"object":"0x60808060405234610078573315610063575f8054336001600160a01b03198216811783556040519290916001600160a01b0316907f8be0079c531659141344cd1fd0a4f28419497f9722a3daafe3b4186f6b6457e09080a36102ba908161007d8239f35b631e4fbdf760e01b81525f6004820152602490fd5b5f80fdfe6040608081526004361015610012575f80fd5b5f3560e01c8062e4768b146101dc57806341976e091461015b578063715018a6146101045780638da5cb5b146100dd5763f2fde38b14610050575f80fd5b346100d95760203660031901126100d957610069610243565b610071610259565b6001600160a01b039081169182156100c357505f54826bffffffffffffffffffffffff60a01b8216175f55167f8be0079c531659141344cd1fd0a4f28419497f9722a3daafe3b4186f6b6457e05f80a3005b51631e4fbdf760e01b81525f6004820152602490fd5b5f80fd5b50346100d9575f3660031901126100d9575f5490516001600160a01b039091168152602090f35b346100d9575f3660031901126100d95761011c610259565b5f80546001600160a01b0319811682556001600160a01b03167f8be0079c531659141344cd1fd0a4f28419497f9722a3daafe3b4186f6b6457e08280a3005b50346100d95760203660031901126100d9576001600160a01b0361017d610243565b165f526001602052805f205480156101985760209151908152f35b815162461bcd60e51b815260206004820152601a60248201527f50726963654f7261636c653a207072696365206e6f74207365740000000000006044820152606490fd5b50346100d957806003193601126100d9577f0d86730737b142fc160892fa8a0f2db687a92a0e294d1ad70624cf5acef03b846020610218610243565b60243590610224610259565b6001600160a01b03165f818152600184528590208290559351908152a2005b600435906001600160a01b03821682036100d957565b5f546001600160a01b0316330361026c57565b60405163118cdaa760e01b8152336004820152602490fdfea2646970667358221220f311f00fc54eacf212eee2dcfbcc36fce692be99826bd4bdeb021863ae14e68764736f6c63430008180033","linkReferences":{}},"methodIdentifiers":{"getPrice(address)":"41976e09","owner()":"8da5cb5b","renounceOwnership()":"715018a6","setPrice(address,uint256)":"00e4768b","transferOwnership(address)":"f2fde38b"},"id":27}