{"abi":[{"type":"constructor","inputs":[{"name":"_allocationManager","type":"address","internalType":"address"},{"name":"_stormController","type":"address","internalType":"address"},{"name":"_reserveVault","type":"address","internalType":"address"},{"name":"_oracle","type":"address","internalType":"address"},{"name":"_usdcToken","type":"address","internalType":"address"},{"name":"_stocks","type":"address[]","internalType":"address[]"}],"stateMutability":"nonpayable"},{"type":"function","name":"addStrategy","inputs":[{"name":"strategy","type":"address","internalType":"address"}],"outputs":[],"stateMutability":"nonpayable"},{"type":"function","name":"allocate","inputs":[{"name":"token","type":"address","internalType":"address"},{"name":"amount","type":"uint256","internalType":"uint256"}],"outputs":[],"stateMutability":"nonpayable"},{"type":"function","name":"allocationManager","inputs":[],"outputs":[{"name":"","type":"address","internalType":"contract AllocationManager"}],"stateMutability":"view"},{"type":"function","name":"collateralYieldStrategy","inputs":[],"outputs":[{"name":"","type":"address","internalType":"contract BaseStrategy"}],"stateMutability":"view"},{"type":"function","name":"defensiveStrategy","inputs":[],"outputs":[{"name":"","type":"address","internalType":"contract BaseStrategy"}],"stateMutability":"view"},{"type":"function","name":"deposit","inputs":[{"name":"token","type":"address","internalType":"address"},{"name":"amount","type":"uint256","internalType":"uint256"}],"outputs":[],"stateMutability":"nonpayable"},{"type":"function","name":"emergencyWithdraw","inputs":[],"outputs":[],"stateMutability":"nonpayable"},{"type":"function","name":"handleStormMode","inputs":[{"name":"active","type":"bool","internalType":"bool"}],"outputs":[],"stateMutability":"nonpayable"},{"type":"function","name":"isStock","inputs":[{"name":"","type":"address","internalType":"address"}],"outputs":[{"name":"","type":"bool","internalType":"bool"}],"stateMutability":"view"},{"type":"function","name":"isStrategyRegistered","inputs":[{"name":"","type":"address","internalType":"address"}],"outputs":[{"name":"","type":"bool","internalType":"bool"}],"stateMutability":"view"},{"type":"function","name":"lendingStrategy","inputs":[],"outputs":[{"name":"","type":"address","internalType":"contract BaseStrategy"}],"stateMutability":"view"},{"type":"function","name":"oracle","inputs":[],"outputs":[{"name":"","type":"address","internalType":"contract PriceOracle"}],"stateMutability":"view"},{"type":"function","name":"owner","inputs":[],"outputs":[{"name":"","type":"address","internalType":"address"}],"stateMutability":"view"},{"type":"function","name":"rebalance","inputs":[],"outputs":[],"stateMutability":"nonpayable"},{"type":"function","name":"registeredStrategies","inputs":[{"name":"","type":"uint256","internalType":"uint256"}],"outputs":[{"name":"","type":"address","internalType":"address"}],"stateMutability":"view"},{"type":"function","name":"removeStrategy","inputs":[{"name":"strategy","type":"address","internalType":"address"}],"outputs":[],"stateMutability":"nonpayable"},{"type":"function","name":"renounceOwnership","inputs":[],"outputs":[],"stateMutability":"nonpayable"},{"type":"function","name":"reserveVault","inputs":[],"outputs":[{"name":"","type":"address","internalType":"contract ReserveVault"}],"stateMutability":"view"},{"type":"function","name":"setStrategies","inputs":[{"name":"_lending","type":"address","internalType":"address"},{"name":"_collateral","type":"address","internalType":"address"},{"name":"_stable","type":"address","internalType":"address"},{"name":"_defensive","type":"address","internalType":"address"}],"outputs":[],"stateMutability":"nonpayable"},{"type":"function","name":"setVault","inputs":[{"name":"_vault","type":"address","internalType":"address"}],"outputs":[],"stateMutability":"nonpayable"},{"type":"function","name":"stableYieldStrategy","inputs":[],"outputs":[{"name":"","type":"address","internalType":"contract BaseStrategy"}],"stateMutability":"view"},{"type":"function","name":"stormController","inputs":[],"outputs":[{"name":"","type":"address","internalType":"contract StormController"}],"stateMutability":"view"},{"type":"function","name":"supportedStocks","inputs":[{"name":"","type":"uint256","internalType":"uint256"}],"outputs":[{"name":"","type":"address","internalType":"address"}],"stateMutability":"view"},{"type":"function","name":"totalAssets","inputs":[],"outputs":[{"name":"","type":"uint256","internalType":"uint256"}],"stateMutability":"view"},{"type":"function","name":"transferOwnership","inputs":[{"name":"newOwner","type":"address","internalType":"address"}],"outputs":[],"stateMutability":"nonpayable"},{"type":"function","name":"usdcToken","inputs":[],"outputs":[{"name":"","type":"address","internalType":"address"}],"stateMutability":"view"},{"type":"function","name":"vault","inputs":[],"outputs":[{"name":"","type":"address","internalType":"address"}],"stateMutability":"view"},{"type":"function","name":"withdraw","inputs":[{"name":"token","type":"address","internalType":"address"},{"name":"to","type":"address","internalType":"address"},{"name":"amount","type":"uint256","internalType":"uint256"}],"outputs":[],"stateMutability":"nonpayable"},{"type":"event","name":"OwnershipTransferred","inputs":[{"name":"previousOwner","type":"address","indexed":true,"internalType":"address"},{"name":"newOwner","type":"address","indexed":true,"internalType":"address"}],"anonymous":false},{"type":"event","name":"Rebalanced","inputs":[],"anonymous":false},{"type":"event","name":"StrategyAdded","inputs":[{"name":"strategy","type":"address","indexed":true,"internalType":"address"}],"anonymous":false},{"type":"event","name":"StrategyDeposited","inputs":[{"name":"strategy","type":"address","indexed":true,"internalType":"address"},{"name":"token","type":"address","indexed":true,"internalType":"address"},{"name":"amount","type":"uint256","indexed":false,"internalType":"uint256"}],"anonymous":false},{"type":"event","name":"StrategyRemoved","inputs":[{"name":"strategy","type":"address","indexed":true,"internalType":"address"}],"anonymous":false},{"type":"event","name":"StrategyWithdrawn","inputs":[{"name":"strategy","type":"address","indexed":true,"internalType":"address"},{"name":"token","type":"address","indexed":true,"internalType":"address"},{"name":"amount","type":"uint256","indexed":false,"internalType":"uint256"}],"anonymous":false},{"type":"error","name":"AddressEmptyCode","inputs":[{"name":"target","type":"address","internalType":"address"}]},{"type":"error","name":"AddressInsufficientBalance","inputs":[{"name":"account","type":"address","internalType":"address"}]},{"type":"error","name":"FailedInnerCall","inputs":[]},{"type":"error","name":"OwnableInvalidOwner","inputs":[{"name":"owner","type":"address","internalType":"address"}]},{"type":"error","name":"OwnableUnauthorizedAccount","inputs":[{"name":"account","type":"address","internalType":"address"}]},{"type":"error","name":"SafeERC20FailedOperation","inputs":[{"name":"token","type":"address","internalType":"address"}]}],"bytecode":{"object":"0x6040608060405234620002505762002c3b9081380380620000208162000268565b93843982019160c08184031262000250576200003c816200028e565b916020936200004d8584016200028e565b926200005c604082016200028e565b936200006b606083016200028e565b926200007a608084016200028e565b60a08401516001600160401b039491929185821162000250570181601f820112156200025057805194851162000254578460051b8a80620000bd81840162000268565b80988152019183010192831162000250578a809201905b83821062000236575050505033156200021e575f549660018060a01b039485809481809460018060a01b03199c8d33908216175f55823391167f8be0079c531659141344cd1fd0a4f28419497f9722a3daafe3b4186f6b6457e05f80a3168b6002541617600255168960035416176003558160049816896004541617600455168760055416176005551685600c541617600c555f5b81518110156200020e5782620001808284620002a3565b5116600d90815468010000000000000000811015620001fb57600192838201808255821015620001e857906001949392915f528a5f2001908982541617905584620001cc8386620002a3565b51165f52600e8952855f209060ff198254161790550162000169565b603289634e487b7160e01b5f525260245ffd5b604188634e487b7160e01b5f525260245ffd5b60405161296e9081620002cd8239f35b604051631e4fbdf760e01b81525f6004820152602490fd5b82809162000244846200028e565b815201910190620000d4565b5f80fd5b634e487b7160e01b5f52604160045260245ffd5b6040519190601f01601f191682016001600160401b038111838210176200025457604052565b51906001600160a01b03821682036200025057565b8051821015620002b85760209160051b010190565b634e487b7160e01b5f52603260045260245ffdfe6080806040526004361015610012575f80fd5b5f905f3560e01c90816301e1d11414610eca575080630801cf1214610b6957806311eac85514610b41578063175188e8146109a857806318bb55f41461090d578063223e5479146107eb5780632a4468c6146107c257806347e7ef2414610767578063528f9b341461073f578063534d044b146107175780636817031b146106d4578063715018a61461067d5780637baf5d141461063b5780637d7c2a1c146106235780637dc0d1d0146105fb5780638da5cb5b146105d4578063a97d29a3146105ac578063b78b52df14610559578063ca8aa7c714610531578063cef062fc14610509578063d9caed12146104ab578063db2e21bc146102da578063ddac227b146102b1578063e88ffc6414610272578063eb4cad8b14610249578063ed2046071461020a578063f2fde38b1461017d5763fbfa77cf14610152575f80fd5b3461017a578060031936011261017a576001546040516001600160a01b039091168152602090f35b80fd5b503461017a57602036600319011261017a576101976110c5565b61019f61279e565b6001600160a01b039081169081156101f1575f54826bffffffffffffffffffffffff60a01b8216175f55167f8be0079c531659141344cd1fd0a4f28419497f9722a3daafe3b4186f6b6457e05f80a380f35b604051631e4fbdf760e01b815260048101849052602490fd5b503461017a57602036600319011261017a5760209060ff906040906001600160a01b036102356110c5565b168152600a84522054166040519015158152f35b503461017a578060031936011261017a576009546040516001600160a01b039091168152602090f35b503461017a57602036600319011261017a5760209060ff906040906001600160a01b0361029d6110c5565b168152600e84522054166040519015158152f35b503461017a578060031936011261017a576006546040516001600160a01b039091168152602090f35b50346104a7575f3660031901126104a7576102f361279e565b6006546001600160a01b039081168061045f575b5081816007541680610421575b508160085416806103e3575b5081600954168061039a575b50805b600b5481101561039657826103438261113a565b90549060031b1c16803b1561039257828080926004604051809481936336cb886f60e21b83525af161037a575b505060010161032f565b6103839061116f565b61038e57815f610370565b5080fd5b8280fd5b5080f35b803b1561038e578180916004604051809481936336cb886f60e21b83525af180156103d8571561032c576103cd9061116f565b61038e57815f61032c565b6040513d84823e3d90fd5b803b1561038e578180916004604051809481936336cb886f60e21b83525af180156103d85715610320576104169061116f565b61038e57815f610320565b803b1561038e578180916004604051809481936336cb886f60e21b83525af180156103d85715610314576104549061116f565b61038e57815f610314565b803b156104a7575f80916004604051809481936336cb886f60e21b83525af1801561049c57156103075761049491925061116f565b5f905f610307565b6040513d5f823e3d90fd5b5f80fd5b346104a75760603660031901126104a7576104fa6104c76110c5565b6104cf6110db565b6001546104f190336001600160a01b03918216149081156104fc575b50611215565b60443591612043565b005b90505f54163314856104eb565b346104a7575f3660031901126104a7576004546040516001600160a01b039091168152602090f35b346104a7575f3660031901126104a7576002546040516001600160a01b039091168152602090f35b346104a75760403660031901126104a7576104fa6105756110c5565b60015461059690336001600160a01b039182161490811561059f5750611215565b6024359061196e565b90505f54163314846104eb565b346104a7575f3660031901126104a7576003546040516001600160a01b039091168152602090f35b346104a7575f3660031901126104a7575f546040516001600160a01b039091168152602090f35b346104a7575f3660031901126104a7576005546040516001600160a01b039091168152602090f35b346104a7575f3660031901126104a7576104fa6112cc565b346104a75760203660031901126104a757600435600b548110156104a75761066460209161113a565b905460405160039290921b1c6001600160a01b03168152f35b346104a7575f3660031901126104a75761069561279e565b5f80546001600160a01b0319811682556001600160a01b03167f8be0079c531659141344cd1fd0a4f28419497f9722a3daafe3b4186f6b6457e08280a3005b346104a75760203660031901126104a7576106ed6110c5565b6106f561279e565b600180546001600160a01b0319166001600160a01b0392909216919091179055005b346104a7575f3660031901126104a7576008546040516001600160a01b039091168152602090f35b346104a7575f3660031901126104a7576007546040516001600160a01b039091168152602090f35b346104a75760403660031901126104a7576104fa6107836110c5565b60015461059690336001600160a01b03918216148015919080836107b6575b6107ab90611215565b9161059f5750611215565b505f54821633146107a2565b346104a75760203660031901126104a757600435600d548110156104a7576106646020916110f1565b346104a75760203660031901126104a7576108046110c5565b61080c61279e565b6001600160a01b0381169081156108c857815f52600a60205260ff60405f2054166108775761085190825f52600a60205260405f20600160ff198254161790556111de565b7f3f008fd510eae7a9e7bee13513d7b83bef8003d488b5a3d0b0da4de71d6846f15f80a2005b60405162461bcd60e51b815260206004820152602360248201527f526f757465723a20737472617465677920616c726561647920726567697374656044820152621c995960ea1b6064820152608490fd5b60405162461bcd60e51b815260206004820152601860248201527f526f757465723a20696e76616c696420737472617465677900000000000000006044820152606490fd5b346104a75760203660031901126104a75760043580151581036104a757600354336001600160a01b039182161490811561099b575b50156109565761094e57005b6104fa6112cc565b60405162461bcd60e51b815260206004820152601960248201527f526f757465723a20756e617574686f72697a65642063616c6c000000000000006044820152606490fd5b90505f5416331482610942565b346104a75760203660031901126104a7576109c16110c5565b6109c961279e565b6001600160a01b039081165f818152600a602052604090205490919060ff1615610afc575f828152600a60205260408120805460ff191690555b600b9081549182821015610af357839285610a1d8461113a565b969054600397881b1c1614610a39575050600191925001610a03565b9092915f199180830191908211610adf57610a6784610a5a610a859461113a565b905490891b1c169161113a565b90919060018060a01b038084549260031b9316831b921b1916179055565b82548015610acb570192610a988461113a565b81939154921b1b19169055555b7f09a1db4b80c32706328728508c941a6b954f31eb5affd32f236c1fd405f8fea45f80a2005b634e487b7160e01b5f52603160045260245ffd5b634e487b7160e01b5f52601160045260245ffd5b50505050610aa5565b60405162461bcd60e51b815260206004820152601f60248201527f526f757465723a207374726174656779206e6f742072656769737465726564006044820152606490fd5b346104a7575f3660031901126104a757600c546040516001600160a01b039091168152602090f35b346104a75760803660031901126104a757610b826110c5565b610b8a6110db565b906044356001600160a01b03811690036104a7576064356001600160a01b03811690036104a757610bb961279e565b600680546001600160a01b03199081166001600160a01b038481169182179093556007805483168685161790556008805483166044803586169190911790915560098054909316606435851617909255600c5460405163095ea7b360e01b815260048101929092525f19602483015290926020928492909183915f91165af1801561049c57610eab575b50600c5460405163095ea7b360e01b8152604480356001600160a01b0390811660048401525f196024840152919260209284929183915f91165af1801561049c57610e8c575b50600c5460405163095ea7b360e01b81526001600160a01b03606435811660048301525f1960248301529091602091839160449183915f91165af1801561049c57610e6d575b505f5b600d54811015610d6c578060206044610ceb5f946110f1565b905460405163095ea7b360e01b81526001600160a01b0389811660048301528719602483015290968794938593919260039190911b9190911c165af191821561049c57600192610d3d575b5001610cd2565b610d5e9060203d602011610d65575b610d568183611197565b8101906111c6565b5084610d36565b503d610d4c565b506001600160a01b0381165f908152600a602052604090208054919060ff831615610e53575b5050506001600160a01b0381165f908152600a602052604090208054919060ff831615610e39575b5050506044356001600160a01b03165f908152600a60205260409020805460ff811615610e1e575b50506064356001600160a01b03165f908152600a60205260409020805460ff811615610e0a57005b60ff191660011790556104fa6064356111de565b60ff19166001179055610e326044356111de565b8080610de2565b6001610e4b9360ff19161790556111de565b808080610dba565b6001610e659360ff19161790556111de565b818080610d92565b610e859060203d602011610d6557610d568183611197565b5082610ccf565b610ea49060203d602011610d6557610d568183611197565b5082610c89565b610ec39060203d602011610d6557610d568183611197565b5082610c43565b346104a7575f3660031901126104a7576006545f916001600160a01b0391821680611066575b5050806007541680610ff8575b50806008541680610f8a575b506009541680610f1f575b602082604051908152f35b6020600491604051928380926278744560e21b82525afa90811561049c575f91610f57575b50610f51906020926111b9565b90610f14565b90506020813d602011610f82575b81610f7260209383611197565b810103126104a757516020610f44565b3d9150610f65565b91602060049293604051938480926278744560e21b82525afa90811561049c575f91610fc2575b610fbb92506111b9565b9082610f09565b90506020823d602011610ff0575b81610fdd60209383611197565b810103126104a757610fbb915190610fb1565b3d9150610fd0565b91602060049293604051938480926278744560e21b82525afa90811561049c575f91611030575b61102992506111b9565b9082610efd565b90506020823d60201161105e575b8161104b60209383611197565b810103126104a75761102991519061101f565b3d915061103e565b81929350906004816020936278744560e21b82525afa90811561049c575f91611093575b50908280610ef0565b90506020813d6020116110bd575b816110ae60209383611197565b810103126104a757518261108a565b3d91506110a1565b600435906001600160a01b03821682036104a757565b602435906001600160a01b03821682036104a757565b600d5481101561112657600d5f527fd7b6990105719101dabeb77144f2a3385c8033acd3af97e9423a695e81ad1eb501905f90565b634e487b7160e01b5f52603260045260245ffd5b600b5481101561112657600b5f527f0175b7a638427703f0dbe7bb9bbf987a2551717b34e79f33b5b1008d1fa01db901905f90565b67ffffffffffffffff811161118357604052565b634e487b7160e01b5f52604160045260245ffd5b90601f8019910116810190811067ffffffffffffffff82111761118357604052565b91908201809211610adf57565b908160209103126104a7575180151581036104a75790565b600b54906801000000000000000082101561118357610a678260016112069401600b5561113a565b565b91908203918211610adf57565b1561121c57565b60405162461bcd60e51b815260206004820152601b60248201527f526f757465723a206f6e6c79207661756c74206f72206f776e657200000000006044820152606490fd5b908160209103126104a757516001600160a01b03811681036104a75790565b908160609103126104a7578051916040602083015192015190565b81810292918115918404141715610adf57565b81156112b8570490565b634e487b7160e01b5f52601260045260245ffd5b6006545f906001600160a01b0390811680611918575b508060085416806118b8575b50806009541680611849575b5080600c54166040918251916370a0823160e01b835260049030828501526020908185602481845afa94851561183f578795611810575b5084611364575b505050505050807fc741dbaad15a4f298fe8d80943fa8e005e7bcb2f5b0a0c8dec1fc35be457f14691a1565b600354865163259ad55b60e01b81529290851681848681845afa9384156117b8579085918a956117ef575b50829089519283809263495c445760e11b82525afa9081156117b857869183918b916117c2575b50868a5180948193632b35f73960e01b8352165afa9182156117b857908492918a92611786575b50506002548851635fe1316360e01b8152868101928352921515602083015260609183918816908290819060400103915afa91821561177c57889289928a9161173a575b506064611431611439928a61129b565b048098611208565b9680611725575b50508515928315611453575b5050611338565b156115d0575050603c840290848204603c1417156115bd57606461147991048094611208565b928061153b575b50826114bb575b505050507fc741dbaad15a4f298fe8d80943fa8e005e7bcb2f5b0a0c8dec1fc35be457f146905b905f80808080808061144c565b816008541691600c541690823b156115375784516311f9fbc960e21b81526001600160a01b03909216908201908152602081019390935292918491849182908490829060400103925af190811561152e575061151a575b808080611487565b611524829161116f565b61017a575f611512565b513d84823e3d90fd5b8580fd5b826009541683600c5416813b156115b95786516311f9fbc960e21b81526001600160a01b039091168482019081526020810193909352918791839182908490829060400103925af180156115af57908691611597575b50611480565b6115a09061116f565b6115ab57845f611591565b8480fd5b85513d88823e3d90fd5b8780fd5b634e487b7160e01b865260118252602486fd5b816115dc9293506111b9565b9081611610575b5050505050507fc741dbaad15a4f298fe8d80943fa8e005e7bcb2f5b0a0c8dec1fc35be457f146906114ae565b61162d91611621611626928761129b565b6112ae565b8094611208565b92806116b5575b5082611642575b80806115e3565b816008541691600c541690823b156115375784516311f9fbc960e21b81526001600160a01b03909216908201908152602081019390935292918491849182908490829060400103925af190811561152e57506116a1575b80808061163b565b6116ab829161116f565b61017a575f611699565b826006541683600c5416813b156115b95786516311f9fbc960e21b81526001600160a01b039091168482019081526020810193909352918791839182908490829060400103925af180156115af57908691611711575b50611634565b61171a9061116f565b6115ab57845f61170b565b6117339187875416906127c9565b5f80611440565b61143194506064935061143991506117699060603d606011611775575b6117618183611197565b810190611280565b91955093909150611421565b503d611757565b87513d8a823e3d90fd5b8193508092503d83116117b1575b61179e8183611197565b810103126104a7575182908160606113dd565b503d611794565b88513d8b823e3d90fd5b6117e29150823d84116117e8575b6117da8183611197565b810190611261565b5f6113b6565b503d6117d0565b8391955061180990823d8411610d6557610d568183611197565b949061138f565b9094508181813d8311611838575b6118288183611197565b810103126104a75751935f611331565b503d61181e565b86513d89823e3d90fd5b81600c5416813b156118b4578391606483926040519485938492636ce5768960e11b845260048401523060248401525f1960448401525af180156118a957908391611895575b506112fa565b61189e9061116f565b61038e57815f61188f565b6040513d85823e3d90fd5b8380fd5b81600c5416813b156118b4578391606483926040519485938492636ce5768960e11b845260048401523060248401525f1960448401525af180156118a957908391611904575b506112ee565b61190d9061116f565b61038e57815f6118fe565b81600c5416813b156104a7575f91606483926040519485938492636ce5768960e11b84526004840152306024840152811960448401525af1801561049c57156112e25761196691925061116f565b5f905f6112e2565b5f90821561203e5760018060a01b0392838216936040938451936370a0823160e01b8552600490308287015260209586816024818c5afa908115612034579086915f91612003575b5010611fc5575b8360035416875163495c445760e11b815287818581855afa908115611f035786929189915f91611fa8575b50858b5180958193632b35f73960e01b8352165afa918215611f035784929189915f93611f76575b508a5163259ad55b60e01b815293849182905afa918215611f035790611a6b92915f92611f54575b506002548a51635fe1316360e01b815286810192835283151560208401529360609285928a169183918291604090910190565b03915afa918215611f03575f905f905f94611f2e575b508b5f52600e8a5260ff8b5f2054165f14611b89575050506064611aa8611ab0928861129b565b048096611208565b9480611b75575b5084151580611b68575b611ad0575b5050505050505050565b836007541691823b156118b45787516311f9fbc960e21b81526001600160a01b03909216908201908152602081018690529091839183919082908490829060400103925af18015611b5e57611b4a575b5050905f805160206129198339815191529291600754169351908152a35f80808080808080611ac6565b611b54829161116f565b61017a5780611b20565b86513d84823e3d90fd5b5083600754161515611ac1565b611b8390858454168a6127c9565b5f611ab7565b90919287600c54168c14611ba6575b505050505050505050505050565b6064611bb5611bbd928b61129b565b048099611208565b9780611f1a575b5087159283611b985715611d7f575050603c860290868204603c141715611d6c576064611bf391048096611208565b9480151580611d5f575b611cc6575b5084151580611cb9575b611c2b575b50505050505050505b5f8080808080808080808080611b98565b836008541691823b156118b45787516311f9fbc960e21b81526001600160a01b03909216908201908152602081018690529091839183919082908490829060400103925af18015611b5e57611ca5575b5050905f805160206129198339815191529291600854169351908152a35f80808080808080611c11565b611caf829161116f565b61017a5780611c7b565b5083600854161515611c0c565b8460095416803b156115ab5788516311f9fbc960e21b81526001600160a01b038416858201908152602081018490529091869183919082908490829060400103925af18015611d55578a92918691611d3c575b50505f80516020612919833981519152888760095416928b51908152a35f611c02565b611d489192935061116f565b6118b4578890845f611d19565b89513d87823e3d90fd5b5084600954161515611bfd565b634e487b7160e01b845260118352602484fd5b81611d8b9293506111b9565b9081611da1575b50505050505050505050611c1a565b611db991611621611db2928961129b565b8096611208565b9480151580611f0d575b611e79575b5084151580611e6c575b611dde575b8080611d92565b836008541691823b156118b45787516311f9fbc960e21b81526001600160a01b03909216908201908152602081018690529091839183919082908490829060400103925af18015611b5e57611e58575b5050905f805160206129198339815191529291600854169351908152a35f80808080808080611dd7565b611e62829161116f565b61017a5780611e2e565b5083600854161515611dd2565b8460065416803b156104a75788516311f9fbc960e21b81526001600160a01b0384168582019081526020810184905290915f9183919082908490829060400103925af18015611f0357908a9291611eed575b505f80516020612919833981519152888760065416928b51908152a35f611dc8565b909450611efa915061116f565b875f935f611ecb565b89513d5f823e3d90fd5b5084600654161515611dc3565b611f2890888754168d6127c9565b5f611bc4565b915050611f4b91925060603d606011611775576117618183611197565b9291905f611a81565b6060919250611f6f908a3d8c11610d6557610d568183611197565b9190611a38565b9350915082813d8311611fa1575b611f8e8183611197565b810103126104a75787849251915f611a10565b503d611f84565b611fbf9150823d84116117e8576117da8183611197565b5f6119e8565b86516323b872dd60e01b8782015233602482015230604482015260648082018790528152611ffe90611ff8608482611197565b89612805565b6119bd565b809250888092503d831161202d575b61201c8183611197565b810103126104a7578590515f6119b6565b503d612012565b88513d5f823e3d90fd5b505050565b915f8082156127975760018060a01b038086169560049180835416906040958651938492836370a0823160e01b9586825280898301528d602098899160249889915afa91821561261d575f92612768575b508b8210156126f257509081879695949392612674575b6120b5908c611208565b928d8152600e875260ff8b822054165f146121d85750600754169081612152575b5050505b865194859283523090830152818a5afa93841561152e57508293612122575b5050508181111561211a5750905b8161211157505050565b611206926127c9565b905090612107565b9080929350813d831161214b575b61213a8183611197565b810103126104a75751905f806120f9565b503d612130565b908092939495503b156115b9578851636ce5768960e11b81526001600160a01b039091168188019081523060208201526040810193909352918791839182908490829060600103925af180156121ce578493929187916121b3575b806120d6565b6121c0919293945061116f565b6115ab57908291855f6121ad565b87513d88823e3d90fd5b92908d81600c5416146121ef575b505050506120da565b8d8b858b84600954169283612512575b5050505082851080612505575b6123a2575b82851080612395575b612225575b506121e6565b968596978c96959651958680928b82528d30908301525afa93841561238b579085918b95612356575b509061225e916008541692611208565b91813b15612352578a51636ce5768960e11b81526001600160a01b03909116818a019081523060208201526040810193909352918991839182908490829060600103925af180156123305790889161233a575b505087518481523087820152858185818f5afa908115612330579086959493929189916122f9575b506122ee92916122e891611208565b906111b9565b505f8080808d61221f565b86819792509392933d8311612329575b6123138183611197565b810103126104a7579351859491906122ee6122d9565b503d612309565b89513d8a823e3d90fd5b6123439061116f565b61234e57865f6122b1565b8680fd5b8980fd5b89809296508193503d8311612384575b6123708183611197565b810103126104a7575192849061225e61224e565b503d612366565b8b513d8c823e3d90fd5b508160085416151561221a565b968596978c9692969593949551928380928b82528d30908301525afa90811561238b578a916124d8575b5084600654166123dc8385611208565b90803b156124d4578c51636ce5768960e11b81526001600160a01b038716818d019081523060208201526040810193909352918c91839182908490829060600103925af180156124aa578f91888e8e8e938e956124b4575b505051809481938d835230908301525afa9081156124aa57908998979695949392918c91612473575b5061246c92916122e891611208565b928d612211565b89819a92509392933d83116124a3575b61248d8183611197565b810103126104a75796518897919061246c61245d565b503d612483565b8c513d8d823e3d90fd5b9350945050506124c4915061116f565b612352578d888a888e8e5f612434565b8b80fd5b90508781813d83116124fe575b6124ef8183611197565b810103126104a757515f6123cc565b503d6124e5565b508160065416151561220c565b899a9b9395999192949697985051809681938d835230908301525afa928315612668578193612639575b50806126275750803b156104a7578a51636ce5768960e11b81526001600160a01b038516818b019081523060208201526040810185905290915f9183919082908490829060600103925af1801561261d57908e9161260a575b508786918c51928380928b82528d30908301525afa90811561238b579088979695949392918b916125d7575b50906125cc91611208565b928d5f808b8e6121ff565b8881939992503d8311612603575b6125ef8183611197565b810103126104a757518796906125cc6125c1565b503d6125e5565b612615919a5061116f565b5f9887612595565b8b513d5f823e3d90fd5b634e487b7160e01b815260118a528690fd5b9092508881813d8311612661575b6126518183611197565b810103126104a75751918061253c565b503d612647565b508b51903d90823e3d90fd5b9080929394959650885416803b156104a7578a51636ce5768960e11b81526001600160a01b038516818b019081523060208201526040810184905290915f9183919082908490829060600103925af1801561261d579088979695949392916126dd575b506120ab565b6126e891945061116f565b5f926120b56126d7565b985050509497995050505050819492943b156104a7578451636ce5768960e11b81526001600160a01b03918216948101948552921660208401526040830194909452925f9184919082908490829060600103925af190811561275f57506127565750565b6112069061116f565b513d5f823e3d90fd5b9091508781813d8311612790575b6127808183611197565b810103126104a75751905f612094565b503d612776565b5050505050565b5f546001600160a01b031633036127b157565b60405163118cdaa760e01b8152336004820152602490fd5b60405163a9059cbb60e01b60208201526001600160a01b0392909216602483015260448083019390935291815261120691612805606483611197565b81516001600160a01b03909116915f91829160200182855af13d156128a9573d67ffffffffffffffff81116111835761286091604051916128506020601f19601f8401160184611197565b82523d5f602084013e5b836128b5565b805190811515918261288e575b50506128765750565b60249060405190635274afe760e01b82526004820152fd5b6128a192506020809183010191016111c6565b155f8061286d565b6128609060609061285a565b906128dc57508051156128ca57805190602001fd5b604051630a12f52160e11b8152600490fd5b8151158061290f575b6128ed575090565b604051639996b31560e01b81526001600160a01b039091166004820152602490fd5b50803b156128e556fee18b9aba1e7c24cfbb396428e6a47e853f76e7d73b6755629f25dfa44a520de5a264697066735822122043e860deaacca22d1fbacb1a889ca590e0f9069102c781ae3fa54cad09f01fb064736f6c63430008180033","linkReferences":{}},"methodIdentifiers":{"addStrategy(address)":"223e5479","allocate(address,uint256)":"b78b52df","allocationManager()":"ca8aa7c7","collateralYieldStrategy()":"528f9b34","defensiveStrategy()":"eb4cad8b","deposit(address,uint256)":"47e7ef24","emergencyWithdraw()":"db2e21bc","handleStormMode(bool)":"18bb55f4","isStock(address)":"e88ffc64","isStrategyRegistered(address)":"ed204607","lendingStrategy()":"ddac227b","oracle()":"7dc0d1d0","owner()":"8da5cb5b","rebalance()":"7d7c2a1c","registeredStrategies(uint256)":"7baf5d14","removeStrategy(address)":"175188e8","renounceOwnership()":"715018a6","reserveVault()":"cef062fc","setStrategies(address,address,address,address)":"0801cf12","setVault(address)":"6817031b","stableYieldStrategy()":"534d044b","stormController()":"a97d29a3","supportedStocks(uint256)":"2a4468c6","totalAssets()":"01e1d114","transferOwnership(address)":"f2fde38b","usdcToken()":"11eac855","vault()":"fbfa77cf","withdraw(address,address,uint256)":"d9caed12"},"id":31}