{"abi":[{"type":"constructor","inputs":[{"name":"_strategyRouter","type":"address","internalType":"address"},{"name":"_vault","type":"address","internalType":"address"},{"name":"_oracle","type":"address","internalType":"address"},{"name":"_usdcToken","type":"address","internalType":"address"}],"stateMutability":"nonpayable"},{"type":"function","name":"deposit","inputs":[{"name":"token","type":"address","internalType":"address"},{"name":"amount","type":"uint256","internalType":"uint256"}],"outputs":[],"stateMutability":"nonpayable"},{"type":"function","name":"emergencyWithdraw","inputs":[],"outputs":[],"stateMutability":"nonpayable"},{"type":"function","name":"harvest","inputs":[],"outputs":[],"stateMutability":"nonpayable"},{"type":"function","name":"localBalance","inputs":[],"outputs":[{"name":"","type":"uint256","internalType":"uint256"}],"stateMutability":"view"},{"type":"function","name":"oracle","inputs":[],"outputs":[{"name":"","type":"address","internalType":"contract PriceOracle"}],"stateMutability":"view"},{"type":"function","name":"owner","inputs":[],"outputs":[{"name":"","type":"address","internalType":"address"}],"stateMutability":"view"},{"type":"function","name":"renounceOwnership","inputs":[],"outputs":[],"stateMutability":"nonpayable"},{"type":"function","name":"strategyRouter","inputs":[],"outputs":[{"name":"","type":"address","internalType":"address"}],"stateMutability":"view"},{"type":"function","name":"totalAssets","inputs":[],"outputs":[{"name":"","type":"uint256","internalType":"uint256"}],"stateMutability":"view"},{"type":"function","name":"transferOwnership","inputs":[{"name":"newOwner","type":"address","internalType":"address"}],"outputs":[],"stateMutability":"nonpayable"},{"type":"function","name":"usdcToken","inputs":[],"outputs":[{"name":"","type":"address","internalType":"address"}],"stateMutability":"view"},{"type":"function","name":"vault","inputs":[],"outputs":[{"name":"","type":"address","internalType":"address"}],"stateMutability":"view"},{"type":"function","name":"withdraw","inputs":[{"name":"token","type":"address","internalType":"address"},{"name":"to","type":"address","internalType":"address"},{"name":"amount","type":"uint256","internalType":"uint256"}],"outputs":[],"stateMutability":"nonpayable"},{"type":"event","name":"Deposited","inputs":[{"name":"token","type":"address","indexed":true,"internalType":"address"},{"name":"amount","type":"uint256","indexed":false,"internalType":"uint256"}],"anonymous":false},{"type":"event","name":"EmergencyWithdrawExecuted","inputs":[],"anonymous":false},{"type":"event","name":"Harvested","inputs":[{"name":"yieldUSD","type":"uint256","indexed":false,"internalType":"uint256"}],"anonymous":false},{"type":"event","name":"OwnershipTransferred","inputs":[{"name":"previousOwner","type":"address","indexed":true,"internalType":"address"},{"name":"newOwner","type":"address","indexed":true,"internalType":"address"}],"anonymous":false},{"type":"event","name":"Withdrawn","inputs":[{"name":"token","type":"address","indexed":true,"internalType":"address"},{"name":"to","type":"address","indexed":true,"internalType":"address"},{"name":"amount","type":"uint256","indexed":false,"internalType":"uint256"}],"anonymous":false},{"type":"error","name":"AddressEmptyCode","inputs":[{"name":"target","type":"address","internalType":"address"}]},{"type":"error","name":"AddressInsufficientBalance","inputs":[{"name":"account","type":"address","internalType":"address"}]},{"type":"error","name":"FailedInnerCall","inputs":[]},{"type":"error","name":"OwnableInvalidOwner","inputs":[{"name":"owner","type":"address","internalType":"address"}]},{"type":"error","name":"OwnableUnauthorizedAccount","inputs":[{"name":"account","type":"address","internalType":"address"}]},{"type":"error","name":"SafeERC20FailedOperation","inputs":[{"name":"token","type":"address","internalType":"address"}]}],"bytecode":{"object":"0x60803461010957601f610b7b38819003918201601f19168301916001600160401b0383118484101761010d578084926080946040528339810103126101095761004781610121565b61005360208301610121565b9161006c606061006560408401610121565b9201610121565b33156100f1575f549360018060a01b03928380928160018060a01b03199733898b16175f5560405199823391167f8be0079c531659141344cd1fd0a4f28419497f9722a3daafe3b4186f6b6457e05f80a316876001541617600155168560025416176002551683600354161760035516906004541617600455610a4590816101368239f35b604051631e4fbdf760e01b81525f6004820152602490fd5b5f80fd5b634e487b7160e01b5f52604160045260245ffd5b51906001600160a01b03821682036101095756fe604060808152600480361015610013575f80fd5b5f3560e01c90816301e1d1141461060357816311eac855146105dc57816331bd38ed146105b45781634641257d1461053257816347e7ef2414610424578163715018a6146103cd5781637dc0d1d0146103a55781638da5cb5b1461037e578163d9caed1214610287578163db2e21bc14610182578163f2fde38b146100f557508063fbfa77cf146100cd5763ffa853ba146100ac575f80fd5b346100c9575f3660031901126100c9576020906005549051908152f35b5f80fd5b50346100c9575f3660031901126100c95760025490516001600160a01b039091168152602090f35b9050346100c95760203660031901126100c957610110610626565b90610119610876565b6001600160a01b0391821692831561016c5750505f54826bffffffffffffffffffffffff60a01b8216175f55167f8be0079c531659141344cd1fd0a4f28419497f9722a3daafe3b4186f6b6457e05f80a3005b905f6024925191631e4fbdf760e01b8352820152fd5b82346100c9575f3660031901126100c9576001546001600160a01b03929083163314801561027a575b801561026e575b6101bb9061075f565b82815416908251906370a0823160e01b82523090820152602081602481855afa92831561026557505f92610231575b5081610217575b7f8b6c919fff20551f29abe02af60a5cc2f998a4c6710f7132c9620783cd00e0f65f80a1005b610229925f60055560025416906108a1565b8080806101f1565b9091506020813d60201161025d575b8161024d6020938361063c565b810103126100c9575190836101ea565b3d9150610240565b513d5f823e3d90fd5b505f54831633146101b2565b50826002541633146101ab565b9050346100c95760603660031901126100c9576102a2610626565b6001600160a01b0360243581811694929392918582036100c9576102ef60443591806001541633148015610371575b8015610365575b6102e19061075f565b8086541696169586146107a4565b600554908181111561035f575080935b8461030657005b84820391821161034c575091610345847fd1c19fbcd4551a5edfb66d43d2e337c04837afda3482b42bdf569a8fccdae5fb9593602095600555876108a1565b51908152a3005b601190634e487b7160e01b5f525260245ffd5b936102ff565b505f54811633146102d8565b50806002541633146102d1565b82346100c9575f3660031901126100c9575f5490516001600160a01b039091168152602090f35b82346100c9575f3660031901126100c95760035490516001600160a01b039091168152602090f35b346100c9575f3660031901126100c9576103e5610876565b5f80546001600160a01b0319811682556001600160a01b03167f8be0079c531659141344cd1fd0a4f28419497f9722a3daafe3b4186f6b6457e08280a3005b9050346100c957816003193601126100c95761043e610626565b916024359161047960018060a01b03806001541633148015610525575b8015610519575b61046b9061075f565b8083541695169485146107a4565b8261048057005b81516323b872dd60e01b60208201523360248201523060448201526064808201859052815260a0810167ffffffffffffffff8111828210176105065783526104c890856108f3565b6005549083820180921161034c5750600555519081527f2da466a7b24304f47e87fa2e1e5a81b9831ce54fec19055ce277ca2f39ba42c490602090a2005b604183634e487b7160e01b5f525260245ffd5b505f5481163314610462565b508060025416331461045b565b82346100c9575f3660031901126100c9576001547f8e55ccfc9778ff8eba1646d765cf1982537ce0f9257054a17b48aad7452501839160209161059190336001600160a01b03918216149081156105a5575b8115610598575b5061075f565b515f8152a1005b90505f541633148561058b565b80915060025416331490610584565b82346100c9575f3660031901126100c95760015490516001600160a01b039091168152602090f35b82346100c9575f3660031901126100c957905490516001600160a01b039091168152602090f35b82346100c9575f3660031901126100c95760209061061f610672565b9051908152f35b600435906001600160a01b03821682036100c957565b90601f8019910116810190811067ffffffffffffffff82111761065e57604052565b634e487b7160e01b5f52604160045260245ffd5b600554801580156106835750505f90565b600354600480546040516341976e0960e01b81526001600160a01b03918216928101839052939260209185916024918391165afa928315610754575f9361071e575b506106cf906107ff565b9180840293840414171561070a5760ff16604d811161070a57600a0a9081156106f6570490565b634e487b7160e01b5f52601260045260245ffd5b634e487b7160e01b5f52601160045260245ffd5b9092506020813d60201161074c575b8161073a6020938361063c565b810103126100c95751916106cf6106c5565b3d915061072d565b6040513d5f823e3d90fd5b1561076657565b60405162461bcd60e51b815260206004820152601660248201527514dd1c985d1959de4e881d5b985d5d1a1bdc9a5e995960521b6044820152606490fd5b156107ab57565b60405162461bcd60e51b815260206004820152602660248201527f446566656e7369766553747261746567793a206f6e6c792055534443207375706044820152651c1bdc9d195960d21b6064820152608490fd5b60405163313ce56760e01b815290602090829060049082906001600160a01b03165afa5f9181610838575b506108355750601290565b90565b9091506020813d60201161086e575b816108546020938361063c565b810103126100c9575160ff811681036100c957905f61082a565b3d9150610847565b5f546001600160a01b0316330361088957565b60405163118cdaa760e01b8152336004820152602490fd5b60405163a9059cbb60e01b60208201526001600160a01b039092166024830152604480830193909352918152608081019167ffffffffffffffff83118284101761065e576108f1926040526108f3565b565b81516001600160a01b03909116915f91829160200182855af13d156109a0573d67ffffffffffffffff811161065e5761094e916040519161093e6020601f19601f840116018461063c565b82523d5f602084013e5b836109ac565b805190811515918261097c575b50506109645750565b60249060405190635274afe760e01b82526004820152fd5b81925090602091810103126100c957602001518015908115036100c9575f8061095b565b61094e90606090610948565b906109d357508051156109c157805190602001fd5b604051630a12f52160e11b8152600490fd5b81511580610a06575b6109e4575090565b604051639996b31560e01b81526001600160a01b039091166004820152602490fd5b50803b156109dc56fea2646970667358221220a225a750534ea605e6389e7fcf7bf735cd74e27a0bbc6d579132b8d8ae368e6b64736f6c63430008180033","linkReferences":{}},"methodIdentifiers":{"deposit(address,uint256)":"47e7ef24","emergencyWithdraw()":"db2e21bc","harvest()":"4641257d","localBalance()":"ffa853ba","oracle()":"7dc0d1d0","owner()":"8da5cb5b","renounceOwnership()":"715018a6","strategyRouter()":"31bd38ed","totalAssets()":"01e1d114","transferOwnership(address)":"f2fde38b","usdcToken()":"11eac855","vault()":"fbfa77cf","withdraw(address,address,uint256)":"d9caed12"},"id":42}